:020000022000DC
:1060000000000420C13603000137030003370300FA
:1060100005370300073703000937030000000000BD
:106020000000000000000000000000003D360300FA
:106030000D370300000000005D3603001D63020001
:1060400049390300133703001337030013370300E4
:10605000133703001337030013370300133703000C
:1060600013370300133703001337030013370300FC
:1060700013370300133703001337030013370300EC
:1060800013370300193403001337030013370300D9
:106090001337030013370300798802001337030016
:1060A00013370300133703001337030013370300BC
:1060B0001337030013370300000000000000000046
:1060C000133703001337030013370300133703009C
:1060D0001337030013370300133703002D11030098
:1060E00013370300133703001337030000000000C9
:1060F0000000000013370300000000001337030006
:10610000000000000000000000000000000000008F
:10611000000000000000000000000000000000007F
:10612000000000000000000000000000000000006F
:10613000000000000000000000000000000000005F
:10614000000000000000000000000000000000004F
:10615000000000000000000000000000000000003F
:10616000000000000000000000000000000000002F
:10617000000000000000000000000000000000001F
:10618000000000000000000000000000000000000F
:1061900000000000000000000000000000000000FF
:1061A00000000000000000000000000000000000EF
:1061B00000000000000000000000000000000000DF
:1061C00000000000000000000000000000000000CF
:1061D00000000000000000000000000000000000BF
:1061E00000000000000000000000000000000000AF
:1061F000000000000000000000000000000000009F
:10620000F1EE103A43F08073E1EE103A704700BFB0
:1062100010B5054C237833B9044B13B10448AFF3E0
:1062200000800123237010BDA86200200000000040
:106230009097030008B5034B1BB103490348AFF324
:10624000008008BD00000000AC62002090970300B1
:10625000154B002B08BF134B9D46A3F5803A002138
:106260008B460F461348144A121A0FF0C7FB0F4B08
:10627000002B00D098470E4B002B00D098470020F1
:10628000002104000D000D48002802D00C48AFF397
:1062900000800FF049FB200029000DF065FA0FF097
:1062A0001DFB00BF000008000000042000000000EB
:1062B00000000000A86200204C90002000000000B8
:1062C00000000000014B00221A707047C6620020D7
:1062D00038B501460C480D4D02F0C6FA0C4904468B
:1062E000284608F00DFD7B21204601F0A1F8094960
:1062F000284608F005FD4FF47A700AF0B5FF064B0A
:1063000001221A7038BD00BFF46300200878002015
:10631000088D0300208D0300C6620020354B1B78DA
:106320007BB9354A13780133DBB2137043B9334A72
:106330001178002938D101230E2013700DF0EABF27
:10634000704770B503202E4C2E4E0DF0D7FE2378EB
:10635000C5B25A1C1D20F55422700DF0CFFE2378D3
:106360000246F2541C20013323700DF0C7FE23783F
:106370000246F25429460133693D234823700A221C
:1063800008F052FD1E2D214D25D80AF061FF2B6823
:10639000C01AC7281AD823786B2B0AD8BDE87040DA
:1063A00000210E200DF0B6BF01210E2013700DF05C
:1063B000B1BF144916486C2200F0A6FE00232370DA
:1063C0000021BDE870400E200DF0A4BF01210F2078
:1063D0000DF0A0FFDFE70AF03BFF2B68C01AC828CA
:1063E000D3D900210F200DF095FF0AF031FF28606E
:1063F000CBE700BFC6620020C4620020C562002057
:1064000034630020C862002008780020D863002090
:1064100078630020704700BF30B583B06C460F48EA
:106420000F4D02F07DFA20464FF4204101F02EFD81
:1064300094E806000B4801F00FFD20464AF20101E6
:1064400001F024FD94E80600284600F0D1FD064A3C
:10645000064928460FF00AFA03B030BD3863002021
:1064600078630020C8630020006000208D6A02006D
:10647000F8B53B4D3B493C4C3C4E284608F040FCAF
:106480003B49284608F03CFC08200DF001FE394944
:10649000284608F035FC2046042101F077FF002251
:1064A0002046012101F0A2FF2046334902F028F9DD
:1064B00004F52C772046042102F04AF938462F498A
:1064C00001F056FB38462E4901F054FB2022384695
:1064D000102101F043FB2B49284608F011FC3046FF
:1064E00029492A4D0E2202F055FA09222849304640
:1064F00002F04CFA304602F051FA264801F08EFCC8
:106500002846122100F0C0FD00222846112100F08B
:10651000D3FD28466C2100F0BBFD28466C2100F01D
:10652000B9FD284604F5007500F0B8FA06212846A2
:1065300000F0ECF8284600F0D1F804F50F7000F0F8
:106540009FF82846F422202100F00EF928461E214B
:1065500000F008F928460021BDE8F84000F064B9D1
:10656000087800202C8D0300F4630020386300209D
:106570004C8D03006C8D0300948D0300D1620200EA
:10658000C5620200A08D0300CC8D0300786300205B
:10659000DC8D0300C863002010B5002420460121D3
:1065A0000DF078FE2046002101340DF0B3FE302CB2
:1065B000F4D102210B200DF06DFE02210C200DF014
:1065C00069FE022118200DF065FE022119200DF050
:1065D00061FE00211A200DF05DFE00211B200DF050
:1065E00059FE012128200DF055FE012128200DF033
:1065F00091FE01210D200DF08DFE01210E200DF0E8
:1066000089FE01210F200DF085FE012110200DF0E3
:1066100081FE02200DF042FD08200DF039FD012120
:106620000D200DF037FE01210F200DF033FE00216B
:106630000F200DF06FFE09484FF4E13108F08AFD9C
:10664000FFF716FF064B0748074A5A60E02480F818
:1066500023400021072299601A6010BD08780020AD
:1066600010E000E000ED00E0FFF3010072DF704792
:1066700073DF704777DF70470022C2770270704780
:10668000F0B589B0064620221348694602F04CF85E
:10669000F37FC2181D2A0CDDC3F11D04E4B2E21819
:1066A0001D2A4FF00005D8BF082705DD284609B090
:1066B000F0BD044601250927F218601CF054694614
:1066C0005770901C22460FF071F9F27F0232144489
:1066D0002846F47709B0F0BDF463002010B50446F5
:1066E000094802F07FF8E37F1C2B01DD002010BD7C
:1066F000E2180221E1540A2390705370E37F0333C0
:10670000E377012010BD00BFF4630020C27F1C2A84
:1067100001DD0020704710B403469C1802209854F5
:106720000120A1706070DA7F0332DA775DF8044BE4
:10673000704700BF10B4084A084C094902620022A1
:10674000C0E90A41C0E90C225DF8044B0270C2772F
:1067500042628263704700BFFF0101002000F40025
:1067600020001E00C18570470185818542857047E4
:10677000F0B5154605EB8503274A89B0044603EBBF
:10678000830300200E469B0011680290CDE904604F
:10679000ADF8143094F821308DF80830CB07CDE9EE
:1067A0000600039009D41D491D4BC87FE77F9881DF
:1067B00001201C6099609F801060194902AA04F1B1
:1067C0002000FFF753FF10B1002009B0F0BD94F88E
:1067D00020101448019102F005F8019902460120A9
:1067E000FFF748FF0028EFD194F820000121FFF7C0
:1067F0003FFF0028E8D10B4802F04EF8628EA685D4
:1068000095424FF0010094BF521B921A628684F8A1
:10681000230009B0F0BD00BFDC630020306600201B
:10682000E0630020F4630020F0B5002361F30F0360
:106830002D4D044661F31F4389B00363FA212846B6
:1068400001F0D4FFE68D2949278D0868049706EBEF
:10685000860303EB830300229B000592ADF81430FE
:1068600094F8213002928DF80830C307CDE9062252
:1068700003920BD41E4BE27F95F85B029A8005F5DC
:106880000F7501221C609D6098810A60184902AA58
:1068900004F12000FFF7EAFE10B1002009B0F0BDBE
:1068A00094F820101048019101F09CFF01990246D4
:1068B0000120FFF7DFFE0028EFD194F8200001212E
:1068C000FFF7D6FE0028E8D1074801F0E5FF638E08
:1068D000A7859E424FF0010094BF9B1BDB1A638685
:1068E00084F8230009B0F0BDF4630020DC630020CD
:1068F000E063002030B50B888D88112B85B00446ED
:1069000005D0262B33D0102B25D005B030BD436ADF
:10691000EB40DB07F9D52E4801F000F90028F4D14F
:10692000636A94F82310012202FA05F523EA0503AD
:1069300063620029E9D194F82230002BE5D0238E40
:1069400024486386FA2101F051FFE28D218D204613
:10695000FFF70EFFD9E7CB7B012BD6D1426A03FAB2
:1069600005F515430023456280F82330CDE70B7A07
:10697000012BCAD1002380F823304FF4FA71154857
:1069800001F034FF238E5BB1658E95B1A36B0BB123
:106990009847658E618D2A462046FFF7E9FEB4E7E9
:1069A000A36B03B19847618D00222046FFF7E0FEFC
:1069B000ABE7084801F084FF626B002AA5D0009580
:1069C00003AB2946284603950DF036FA9DE700BF34
:1069D000A4660020F463002075DF704710B44FF008
:1069E00010144FF448010022C0E90041C0E902221E
:1069F0005DF8044B704700BF014800F093BE00BF34
:106A0000C4660020F8B500250D4F2E4601E0142D78
:106A100014D0A9B2384601F027FF013504460028FA
:106A2000F5D000F0DBFC0028F1D0204600F0DAFCC5
:106A3000022804BF0136F6B2142DEAD13046F8BD63
:106A4000F46300200A881F2A00D0704700B50B4667
:106A500051F8080F83B049686A4603C29888BDF8A8
:106A60000030ADF802306946FFF7B6FF03B05DF8BD
:106A700004FB00BFAADF7047ABDF7047ACDF704795
:106A8000ADDF7047AEDF7047B0DF7047704700BFC3
:106A900010B504460CF0BAFE204610BD70B5594B37
:106AA00004461B680361061D96B0304601F002FAE9
:106AB00094F8263013F0320208BF84F8272013F030
:106AC0000C0208BF84F8282013F030037AD10FADF0
:106AD0000F93C5E90133C5E9033394F8262094F8F0
:106AE0002710AB618DF83C200022ADF809209DF8FD
:106AF0000A20A0691493012363F342028DF8081061
:106B00008DF80A2008B1037853BBA37F13B104F1B9
:106B10001E03129394F8292005960023D207CDE98D
:106B2000073354BFE389E089ADF81C3058BF1846DD
:106B300004F127010691ADF82000294604F12A034B
:106B40006569099505AA0020FFF794FF054620B95D
:106B5000637F83B9237B002B4DD0284616B070BDD0
:106B600010900FF017FE02AB80B2ADF84400ADF804
:106B700046001393C9E7ADF80D009DF80E30224A88
:106B80000C90012161F34203526894F8271004929B
:106B90008DF80E3004AA02238DF80C1003A90D9075
:106BA000ADF83030ADF834300A9204F11C030B918B
:106BB0000DF102020AA90E93FFF75EFF0028C9D06B
:106BC0000546CAE7104B94F827101B788DF804305F
:106BD0000FAD022200238DF8062094F826200F9393
:106BE0008DF80510C5E90133C5E90333AB618DF8B4
:106BF0003C2001AB78E72146044800F04FFF2846CF
:106C000016B070BDF0630020E88D0300F46300202F
:106C10002DE9F0410B888E88502B8AB00C46054632
:106C200009D0512B04D18B79012B18D0022B26D0FF
:106C30000AB0BDE8F081CB88428D9A4235D0EA8D0A
:106C40009A42F5D1EB6C002BF2D095F83C20648A87
:106C500092077ED42246294630469847E8E7036CDF
:106C6000002BE5D090F83C20520701F1080700F115
:106C700092803A46294630469847A379D6E7A27BC8
:106C8000042A4AD0062A20D0012AD1D16B6C002BCD
:106C9000CED095F83C20170704F1080400F1A78036
:106CA0002246294630469847C2E7876C002FC6D057
:106CB00090F83C30D9075CD404F11208238A42468C
:106CC00029463046B847E388B9E76A6B002AAFD057
:106CD000002202A93046CDE90222CDE90422ADF816
:106CE0000C208DF80830FFF7CFFEAC6C4CB195F856
:106CF0003C30D80700F19C806B8F6A6B3046294688
:106D0000A0476C6B0CF01CF8012820467FD00AF0DD
:106D1000D7FA0023C5E90D338AE7686B002879D0DC
:106D2000278A628A298F07EB020C00234FF0020E9C
:106D30008C45CDE90633CDE908338DF818E03ADD0E
:106D400040F20913ADF81C3006A93046FFF79CFE4F
:106D50006EE7032000211A46009006AB0846CDE9F5
:106D6000066508940DF068F800287FF461AFEB6CBD
:106D700070E7218A069604F11208042300933A462C
:106D8000404606ABCDE9088107950DF055F800287F
:106D900099D1AF6C92E703211A46009106AB082106
:106DA0003846CDE9066508970DF046F800287FF4CF
:106DB00064AF2B6C5DE79DF81EC0ADF81C3004F18C
:106DC00014014CF001033844ADF822208DF81E3038
:106DD0000991ADF820700EF0E9FD238A618A6A8F6F
:106DE0000B449BB2934238BF13466B87ACE7032139
:106DF0001A46009106AB0E212046CDE9066508949F
:106E00000DF01AF800287FF413AF6B6C48E70EF012
:106E1000B7FD7EE74FF480672F870BF091FF0128C5
:106E2000384616D00AF03AFA002368636B8777E792
:106E3000686B698F069604230093224606ABCDE962
:106E4000075009910CF0F8FF00287FF45AAFAC6CA2
:106E500052E70EF08DFDE7E72DE9F04F0F464FF6B4
:106E6000FF718F4289B0064615461C4626D0F1892F
:106E700096F826308C4228BF0C46DB0615D40DF15F
:106E8000100B8C4228BF0C464FF00008718DADF8F6
:106E900010405A464FF6FF700595ADF81280FFF787
:106EA000EDFD404609B0BDE8F08F3948394601F0A4
:106EB000C3FC08B1F18D31B9F189E0E7344801F044
:106EC000C7FC0746D3E7002002230DF1100BADF8F5
:106ED0001200ADF810305A460DF10E0338460593F6
:106EE000FFF7CEFD43F2014398424FD000284AD12C
:106EF0009DF80E8008F00108B8F1000F46D0244834
:106F0000394601F0B1FC8246A0B300F06DFA0338B7
:106F100083B2002CC5D0CDF804804FF0000998460C
:106F200005E0BDF80E30E41AA4B21D4444B3504647
:106F300000F086FAA04503464246594628BF22463D
:106F40003846BBB1ADF80E204FF00102738D8DF8BD
:106F500012200DF10E02CDE90625CDF813908DF823
:106F60001790ADF81030FFF78DFD0028D9D05046AE
:106F700000F070FA4FF00008404609B0BDE8F08F0D
:106F8000DDF804808DE700F00108B5E7F18978E7C6
:106F9000F463002030B4144B144A197802601425AD
:106FA00000220324C58180F82940C0E90D2230BCAD
:106FB000C0E91022C0E9122282718280826080F8CA
:106FC0003C200273026182618283C0F81E20C0F8F7
:106FD000222080F8262042614285C262028680F823
:106FE000281080F827107047E88D0300F88D030003
:106FF00070B483B06D4685E806000446164944F82F
:10700000041B034695E80300144E84E8050031781C
:1070100083F8281003200022142583F8290018463D
:10702000C3E90D22C3E91022C3E91222DD8183F8EE
:107030003C201A731A619A619A83C3F81E20C3F820
:10704000222083F826205A615A85DA621A8683F84C
:10705000271003B070BC7047F88D0300E88D030063
:1070600010B483B06C4684E80600034694E803003D
:10707000043383E8050003B05DF8044B704700BF9C
:1070800001230373704700BF80F82610704700BFCC
:10709000C181704741B190F82930C181002262F36B
:1070A000000380F82930704790F82930012262F3FC
:1070B000000380F82930704780F8271080F82820D6
:1070C000704700BF51F82A2F02604968416070473D
:1070D00030B5C48983B0944223460D4628BF134679
:1070E000418D019500246A464FF6FF70ADF80030DF
:1070F000ADF80240FFF7C2FC18B9BDF8000003B0BC
:1071000030BD204603B030BD10B490F8264014F0D6
:10711000100407D013465DF8044B0A464FF6FF7182
:10712000FFF79ABE20465DF8044B7047A1DF704719
:10713000A3DF7047A4DF704700238382704700BF3E
:10714000806900F0E3B800BF808A70472DE9F04104
:107150000B88CE88382B86B00C46054606D0392BD6
:1071600066D0362B43D006B0BDE8F08100F11C0795
:10717000002E36D10A8A3846314601F0DDFC94F8FB
:107180000C80B8F1010F2CD0B8F1040FEBD1A86935
:1071900000F0BCF801465C4801F066FB00F024F901
:1071A0002A8D053883B2934228BF1346002B00F086
:1071B0009A80218AE289A869AC8A8DF80D600A4418
:1071C000696A05918DF80C80ADF81230ADF8102089
:1071D000ADF80E4000F09AF803A9FFF7A9FF0028C8
:1071E000C1D0384601F0C0FC06B0BDE8F08180692E
:1071F00000F08CF80146444801F036FB00F0F4F84A
:1072000007466EBB05F11C06E289304604F1100109
:1072100001F092FC2B8D2BB1F81EE38980B201386E
:10722000834255DA304601F09FFC06B0BDE8F0819C
:107230000B7B012B1AD0022B95D1036B002B92D024
:1072400090F834208F8892071FD401F11006E2894C
:1072500031462846984761893846FFF76BFF82E739
:1072600005F11C07384601F07FFCBDE7C36A002B1F
:107270003FF479AF90F83420D10717D404F1100609
:10728000E2893146284698476DE7C989039004F1A1
:10729000100603201A46009003AB3046CDE9046186
:1072A0000CF0CAFD0028D6D12B6BD0E7E189039002
:1072B00004F1100603201A46009003AB3046CDE9D6
:1072C00004610CF0B9FD00287FF44DAFEB6AD7E7FD
:1072D000A86900F01BF86A8DA98A92B2FFF726FF11
:1072E00000289FD13FE7AA8AA869ADF80E2040F296
:1072F0000511ADF80C10CDE9043300F007F803A92F
:10730000FFF716FF6DE700BFF46300208088704729
:107310007FDF704786DF70478FDF704790DF7047F1
:10732000A5DF7047B1DF7047B5DF704710B5074B79
:1073300003600446C0690AF0E1FD206A0AF0DEFD40
:10734000606A08B10AF0DAFD204610BD108E030015
:1073500010B5094B03600446C0690AF0CFFD206AEE
:107360000AF0CCFD606A08B10AF0C8FD20460CF0B6
:107370004DFA204610BD00BF108E030070B50446C4
:10738000154D1068A1801721C4F81300256090796D
:107390009588E1804FF4D816D179A4F817500122CE
:1073A000227422736076617318461946A6609DF8B0
:1073B00010500AF005F82946E06128460AF000F866
:1073C00000234FF6FF722062C4E90A33E28163743E
:1073D0006362A374204670BD108E0300007C70476A
:1073E000407C7047407B7047C08870470089704779
:1073F0002DE9F04186B004ACB0F8048016460D4685
:1074000020464FF4285100F041FDCDE900564FF6DB
:10741000FF77012094E80C004146CDE902070348BC
:1074200000F0D8F906B0BDE8F08100BFF463002099
:1074300008B58088FFF774FFB0FA80F0400908BDF6
:1074400008B56621C0690AF0DDFB003818BF0120CD
:1074500008BD00BF08B500231A461946C06909F0E7
:10746000E1FF003818BF012008BD00BFC289818834
:10747000407B01F0BFBB00BF70B50B88113B96B0DD
:107480000C460546462B77D8DFE813F084008700CA
:1074900047008A007600760076007600A100B000F2
:1074A000760076007600760076007600BC00C40098
:1074B000CA00D0007600760076007600760076006E
:1074C000760076007600760076007600760076000C
:1074D0007600760076007600760076007600D3009F
:1074E000760002017600760076007600760076005F
:1074F00076007600760076007600760076007600DC
:107500007600760076007600760076007600D6006B
:10751000DD007600E3007800F2000BF011FC01289A
:107520004FF0500000F0D78009F0B8FEE86218B3C1
:10753000502200210EF062FA71496C7BEB6A0868F8
:1075400000906A46012C0C7914714FF000014FF63F
:10755000FF7003F11C04029303F13803CDE90643E5
:10756000E88118BF0A46A888059102ABCDE903114E
:10757000CDE90811FFF7CCFE16B070BD8B79002B5A
:10758000FAD1406AAB740028F6D01A46194609F0C1
:1075900049FFF1E700230374EEE74B890381EBE732
:1075A0005022002102A80EF029FA218A687B02AA43
:1075B00001F03CFB034600287BD00023A88802A9E9
:1075C00010AAFFF7A7FEBDF81A30EB81D4E70B7ABB
:1075D000002B00F08380EC6A0BF0B2FB0128204600
:1075E00076D009F06DFE0023EB62C5E70B7A112B14
:1075F00065D1A86A0028BFD000231A46194609F0B1
:1076000011FFB9E7002302A98088ADF80830FFF721
:1076100083FEB1E70B7A002BAED14B7A0373ABE755
:10762000002211468088FFF779FEA5E70B89438188
:10763000A2E74B89C3809FE700231A46194680883A
:10764000FFF770FE98E7406A0123AB740028D3D19E
:1076500092E7417B2B4801F0FFF8E388014699420D
:1076600028BF194689B2A888E980FFF75DFE83E745
:107670008B79002B80D0002600231A461946E86932
:1076800009F0D0FE0136A279F3B29A42F4D873E73A
:107690008B7A002B3FF470AF002600231A46194660
:1076A000286A09F0BFFE0136A27AF3B29A42F4D8F2
:1076B00062E7A8881A461946FFF72CFE5CE7C289E4
:1076C0008188407B01F0E6FA90B101236B7490E76A
:1076D0000EF056F987E70EF04BF927E7C26A81886A
:1076E000538AC38101234374407B01F06FFA72E730
:1076F000034602460146A888FFF714FEE5E700BFEF
:10770000F3660020F463002010B50446043001F055
:10771000B3F9034B236000232375204610BD00BF3F
:107720000100FFFF017D01B1704710B50446043030
:1077300001F0ACF90123237510BD00BF007D704737
:107740000B88322B10B504D0332B17D0302B08D038
:1077500010BDCB88DBB1041D2046BDE8104001F010
:1077600003BACB88041D002BF6D14B89002BF3D034
:107770000A3120460A2201F0DFF9EDE7CB88002B21
:10778000E9D14A89002AE6D002EB420204E04A89A4
:10779000002AE0D002EB82025200041D023292B2B3
:1077A0000A31204601F0C8F9D6E700BFA0DF7047D4
:1077B00010B5044600F5F87001F05EF92046F82295
:1077C00000210EF01BF9F822A01800210EF016F986
:1077D000204610BD2DE9F04385B00546BDF83800C0
:1077E000ADF80C00BDF83C00ADF80E00E8461E48B0
:1077F000BDF8349088E80C000F4601F035F805F527
:10780000F875064603E0FFF7F1FD09F02DFD284667
:1078100001F090F904463046002CF4D101212846AD
:1078200001F034F90C994A46284601F04BF94146DB
:10783000384603AAFFF7BAFF30B1284601F030F905
:10784000204605B0BDE8F0834FF4FA71284601F0F8
:107850003FF920EAE074284601F022F9A4B220465C
:1078600005B0BDE8F08300BFF46300202DE9F04FC0
:107870008F880D8885B0884604463946864800F0D2
:10788000F3FFA5F11003012B814640F2908094F89C
:1078900054203AB3002633461633502D54F823A013
:1078A00069D0512D1AD198F80630B8F808B0022BDB
:1078B00053D0BBF1000F11D051466846FFF702FCD0
:1078C000BDF800305B4559D0514602A8FFF7FAFBDE
:1078D000BDF80C305B4551D094F854200136F3B21A
:1078E0009342D9D394F84C31002B00F0D18004F5A9
:1078F000A679002604E094F84C310136B34220DD2D
:1079000059F8040FFFF71CFCB842F4D1382D03D00E
:10791000392D01D0362DEED1B8F80AA0BAF1000FFA
:10792000E9D0D9F800B05846FFF70EFC5045E2D137
:1079300058464146FFF70AFC94F84C310136B342F1
:10794000DEDC112D55D0352D04D1B8F80A30002BCE
:1079500040F08F8005B0BDE8F08F98F80E30062B10
:10796000A7D1DAF800305046DB68414698474846D0
:10797000FFF736FDB0E7B8F806B09AE7DAF800305E
:107980005046DB68414698474846FFF729FD0028E6
:10799000A2D0502DA0D1514602A8FFF793FBBDF80D
:1079A0000C305B4598D14846FFF760FD94E723789B
:1079B000002B3FF46CAF0026112D33460CD004EBA6
:1079C00083033946586803685B6898470136227814
:1079D000F3B29A42F3D85AE704EB83033946586866
:1079E00003681B68984701362278F3B29A42F3D8AD
:1079F0004DE7D3B10026334605E094F84C2101361B
:107A0000F3B29A4211D904EB8305D5F85001FFF780
:107A100097FBB842F1D1D5F85001FFF78DFB013645
:107A200094F84C21F3B29A42EDD894F8F820002A49
:107A300090D000252B4604EB8303D3F8FC00838809
:107A4000BB420AD00135EBB2934283D204EB8303ED
:107A5000D3F8FC008388BB42F4D103681B689847C5
:107A6000013594F8F820EBB29342E4D305B0BDE8B9
:107A7000F08F04F5F874B8F80C20204608F11001D6
:107A800001F05AF8204605B0BDE8F04F01F06CB89F
:107A9000112D7FF458AFC8E7F463002090F854200C
:107AA000272A0CD810B4034602F11604013280F8DC
:107AB000542043F8241001205DF8044B7047002047
:107AC000704700BF0378132B06D800EB8302013305
:107AD00003700120516070470020704775DF7047C8
:107AE00078DF70477ADF7047054A034692E8030063
:107AF000002283E80300C3E902221846704700BF52
:107B0000188E030008B5FFF7EDFF08B1002008BD8F
:107B1000FFF7E6FFB0FA80F0400908BDF8B5002590
:107B20000D4F2E4601E0142D14D0A9B2384600F0B6
:107B30009BFE013504460028F5D0FFF74FFC0028D6
:107B4000F1D02046FFF74EFC012804BF0136F6B203
:107B5000142DEAD13046F8BDF463002008B5018049
:107B60004280FFF7BFFFB0FA80F0400908BD00BFB8
:107B700081607047C16070470A88102A00D0704742
:107B8000CA7B012A0B46FAD10A8A0188914210B4B5
:107B9000448804D8A24202D85DF8044B70470146DD
:107BA0005DF8044B9888FFF799BF00BF8ADF7047E4
:107BB00030B40D4CC4621F25002250248584A025BA
:107BC000C0E91122C0E90F22A0F84650A0F84840B1
:107BD000006230BC8262028680F838204263C26450
:107BE000A0F85020704700BF000180002DE9F04F41
:107BF0008FB002AE304686E80C000C4600F04CF91F
:107C0000C5B2102D4FD0039E07220623A16994F818
:107C10001C9001918DF815208DF81430ED080DF1B0
:107C200014080DF1160A0027B9F1010F0C97CDE9E0
:107C30000677CDE90877CDE90A77CDF833700ED90C
:107C400098F8000001994B464A7882420FD00A7892
:107C5000D4432344013213F0FF031144F4D108F15B
:107C60000108C245E0D100200FB0BDE8F08F11F847
:107C7000024B013CE4B2224606A80DF097FE0DF13E
:107C8000180B1CB9EBE714F0FF04E8D058462A465D
:107C900031460DF07DFE641BAB440028F3D101207A
:107CA0000FB0BDE8F08F03220223AFE7F0B50B88D9
:107CB0008D88103B85B00E4604460D2B2CD8DFE88E
:107CC00003F067072B2B2B2B2B2B2B2B2B742B2D04
:107CD000836AEB40DB071FD54C48FEF793FED8B90B
:107CE000A36A94F82C20012606FA05F523EA050577
:107CF000A5628AB994F82D3073B11F232462A3843E
:107D000004F1200104F14400FFF750FF20B940487E
:107D100000F0C2FD84F82C6005B0F0BD90F92E2073
:107D200091F91B309A422CDC90F8383001F10807A9
:107D30009BB1002502E0D5B2AB420CD9636B03EBDB
:107D4000C5030CCB39462046FFF750FF94F8383076
:107D50006A1C0028EFD09D4213D094F82F30002BDE
:107D600048D096F82430012B0BD9316A4A78FF2A83
:107D70002FD00A78D0430344013213F0FF0311449B
:107D8000F4D104F120010020FFF710FF05B0F0BD91
:107D9000CB7B022BC0D1836A012202FA05F52B436B
:107DA0000022836280F82C20B6E70B7A012BB3D136
:107DB000002580F82C50164800F082FD226C002A25
:107DC000AAD0009503AB2946284603950CF034F859
:107DD000A2E711F8025B6A1ED2B2022A28BF022271
:107DE00003A80DF0E3FD012DCBD0228EBDF80C30A1
:107DF0009A42C6D1E26B002A8ED001230093384606
:107E000003AB242103970CF017F885E7B466002034
:107E1000F4630020A8DF7047704700BF30B500F161
:107E2000080185B005460846019100F043F8019924
:107E30000DF10E020120FFF7EDFF044628B9044BB7
:107E400004481D602946FFF73DFE204605B030BDC1
:107E5000F0630020F463002030B482B06D4685E802
:107E600006000446064944F8081B034695E803004B
:107E7000002184E805001846998002B030BC7047A4
:107E8000288E030062DF704763DF70470122002302
:107E900001808270436070478378012B08D042686C
:107EA00022B9012B8CBF80200020704780207047B2
:107EB0001020704783787BB910B50446406868B1DC
:107EC000A11CFFF7DFFF616822461020FFF7DCFFEF
:107ED000B0FA80F0400910BD01207047012010BDAC
:107EE0004DDF70474EDF70474FDF70474BDF704705
:107EF00010DF70477CDF70477DDF704760DF7047C1
:107F000069DF704761DF704766DF704767DF704782
:107F1000704700BF0F200CF01BBA00BF30B5224CD9
:107F2000224D83B0D4F808034FF0FF3109F06AFE08
:107F30000028F7D0C5B101A8FFF7D8FF0528F1D078
:107F40000028F8D1019B032B1BD8012BF3D918462D
:107F500006F036FEEFE70A2B04D0092B21D00B2BBD
:107F600002D1012008F066FF01A8FFF7BFFF052836
:107F7000D8D00028F8D1019BA3F10902022AF3D836
:107F8000E9E7A3F10902022AD5D80A2B04D0092B6C
:107F900005D00B2BCFD1012008F04CFFCBE70220FE
:107FA000FAE70220DEE700BFF4630020C1EB020025
:107FB0002DE9F04F2DED028B89B00AF0C1FE0128AA
:107FC0004FF4FA7000F0808109F068F90546B14E6F
:107FD00005F1080308EE103A06F5587706F5007A21
:107FE000D6F804034FF0FF3109F00CFE0028F7D05B
:107FF0004FF4FA730DF116012846ADF81630FFF76D
:1080000081FF10B10528F3D1EAE7B5F80490B9F182
:10801000130F00F2368106EB8903D3F814431CB129
:1080200029462046FFF728FA2B88013B1B2B5BD8FB
:10803000DFE813F017015A005A005A005A005A009C
:108040005A005A005A005A005A005A005A005A0060
:108050005A00B5001C005A005A005A005A005A0033
:108060005A005A005A005A005A00A300DFF838821A
:108070004FF0000B58F8040F30B1FFF7AFF918B10B
:108080000BF1010B5FFA8BFBB845F3D1BBF1000F8D
:1080900006D196F810331BB101210F200CF03AF9EC
:1080A0002046FFF79FF9012800F0ED80D6F8CC229A
:1080B00062B10223CDF81890002195F808C0009312
:1080C000084606ABCDF81CC00BF0B6FE09F1C4089B
:1080D00006EB8803586810B103685B68984706EBA5
:1080E00088080023C8F8043029465046FEF702FCF1
:1080F00069482946FFF7DAFDB6F812334B452B885D
:1081000000F0B480102B1ED02CB32046FFF76AF984
:10811000012803D161482946FFF72EFD2046FFF7CD
:1081200061F902281BD05E48FFF708FB00BB5948E5
:108130002946FFF79BFBD6F86833002B3FF458AF76
:108140002846984754E7EB7B012BDDD1AB88A6F896
:108150001233002CD9D151482946FFF70DFD514863
:108160002946FEF76FFC4E48FFF7E8FA0028DED0FC
:108170004B482946FFF7E4FAD9E7D6F86423002AEA
:10818000B2D0CDF818900223002195F908C00093D1
:10819000084606ABCDF81CC00BF04EFEA4E74FF02E
:1081A0000008D6F80C03CDF8008043464246032170
:1081B0003D4C0BF0A1F854F8040F30B1FFF70EF965
:1081C00018B108F101085FFA88F8BC42F3D196F8BB
:1081D000103363B1B8FA88F149090F200CF09AF80E
:1081E00096F810331BB100210F200CF093F809F121
:1081F000C40806EB8804606820B103685B68984790
:1082000000236360EB7B012B0BBF96F8F23296F8EC
:10821000F83296F8F34296F8F942039330200BF0C7
:10822000E5FA06EB8808039B009418EE102A044632
:108230004946FFF7A3F82046C8F80440FFF7D2F8F4
:10824000012833D0D6F8C822002A3FF44DAF0123CD
:1082500000210093084606ABCDF818900BF0ECFD1A
:1082600042E700214846FFF74FFE3DE7102B3FF461
:108270006AAF112B7FF448AF4FF6FF73A6F81233A5
:1082800042E70446D0E6D6F8BC22002A7FF411AFBC
:108290001CE700BFF463002050660020A4660020A5
:1082A000C4660020B466002004670020D6F8B82217
:1082B000002A3FF419AF0021009006AB0846CDF824
:1082C00018900BF0B9FD0FE70DF052FB05467EE666
:1082D00038B50446FFF76CFA04F50070FEF72AFA89
:1082E00004F50F70FEF7C8F904F51770FFF760FC8E
:1082F00004F52C70FFF7F8FB04F53070FEF76EFB09
:1083000004F53470FFF700FA1B481C491C4AC4F8F6
:10831000F4224FF480530025C4F8E83240F20113F0
:10832000C4E9BB01A4F8F8322946A4F8FA5204F5CE
:10833000457050220DF062FBC4F8FF5284F80353DD
:10834000D4E9BF304FF6FF720E49A4F812230E4A4B
:10835000C4F80453014003F00E430A4343F044536E
:10836000C4E9BF320121C4E9D955C4E9C25584F832
:108370001013204638BD00BF010A17000300010199
:10838000170003000000FCFC0710030304290BD8AE
:10839000DFE801F00B130B1B0300104BC0F8EE32AB
:1083A00040F20313A0F8F23270470D4BC0F8EE32E2
:1083B00040F20113A0F8F23270470A4BC0F8EE32D7
:1083C00040F20113A0F8F2327047074BC0F8EE32CA
:1083D0004FF48173A0F8F232704700BFF7006400D9
:1083E000170003001700020080000600F0B5BA4E27
:1083F00080F8FC128DB080F8FD2204460BF090FA54
:108400000BF096FA0BF058FA3369B449039303A8BA
:10841000FFF76EFD18B1002528460DB0F0BD0546EA
:108420000120FFF75FFD0120FFF75AFD0120FFF754
:108430005BFDAB4A94F8ED32099509A90120CDE91D
:108440000A5504928DF82430FFF75AFD0028E2D136
:1084500094F8FD320B90CDE90900181E18BF0120D9
:1084600094F8FC528DF82700049A8DF8263009A95B
:1084700040208DF82550FFF743FD0028CBD194F81C
:10848000EC120990034661F30003CDE90A00049A57
:108490008DF8243009A9A020FFF732FD0028BAD1B9
:1084A000D4F8E8320A900B90049A099309A9A12004
:1084B000FFF726FD0028AED194F8FC32002B40F0E7
:1084C000BB8094F8FD32002B48D00023B4F8F4723E
:1084D000049A0993022509A92320CDE90A338DF8CE
:1084E0002450ADF82670FFF70BFD002893D1CDE99D
:1084F000090094F8FD72B4F8F6320B90049A8DF8E6
:10850000245009A920208DF82670ADF82830FFF7F7
:10851000F7FC00287FF47FAF0990CDE90A0094F8BA
:10852000F832049A8DF8245009A922208DF82630BB
:10853000FFF7E6FC00287FF46EAFCDE9090094F860
:10854000F9320B90049A8DF8245009A921208DF856
:108550002630FFF7D5FC00287FF45DAF04A8FFF7B5
:10856000CDFC00287FF457AFCDE9070040F00103B0
:1085700007A902208DF81C30FFF7C8FC00287FF403
:108580004AAF04F52C70FFF7BDFA054600283FF40A
:1085900042AF337D53498DF808300B2202A8FFF714
:1085A000A9FC00287FF437AF0120FFF79BFC0120D6
:1085B000FFF796FC0120FFF797FC94F8FD32002BA3
:1085C00040F0848003220021012008F0B7FEC4F8A7
:1085D000040300283FF41FAF05AB0326CDE9006379
:1085E0004149424800234FF4A06209F025FE32467B
:1085F0000021012008F0A2FEC4F8080300283FF47F
:108600000AAF06ABCDE9006339493A480023C822D6
:1086100009F012FE3849394A00234FF480000860FF
:108620000092184601224FF480710AF00FFEC4F840
:108630000C0300F0A5FAEFE60990CDE90A00B4F8C2
:10864000EE32049AADF82630012509A923208DF8D1
:108650002450FFF755FC00287FF4DDAECDE909007A
:1086600094F8FC72B4F8F0320B90049A8DF8245010
:1086700009A920208DF82670ADF82830FFF740FCBE
:1086800000287FF4C8AE0990CDE90A0094F8F232D0
:10869000049A8DF8245009A922208DF82630FFF77E
:1086A0002FFC00287FF4B7AECDE9090094F8F3322F
:1086B0000B90049A8DF8245009A921208DF82630BA
:1086C000FFF71EFC00283FF4FCAEA4E604F5307072
:1086D000FEF792F976E700BF848E0300117F020057
:1086E00000600020708E03007C8E0300B17F0200CA
:1086F000808E03001D7F020000E100E0157F020074
:1087000000B5084B85B01B7D019108468DF80C30F3
:108710000EF040F8019982B203A8FFF7EBFB05B019
:108720005DF804FB848E030000B583B008460DF1AC
:108730000601ADF80620FFF7DFFB20B99DF8060023
:1087400003B05DF804FB002003B05DF804FB00BF3C
:1087500070B4234B0E4605460FCB85B06C4607C45C
:108760009DF900202380B24234D09DF90130B342FC
:1087700030D09DF90230B3422CD09DF90330B34282
:1087800028D09DF90430B34224D09DF90530B3427E
:1087900020D0FEB19DF90730B3421BD09DF90830BF
:1087A000B34217D09DF90930B34213D09DF90A3076
:1087B000B3420FD09DF90B30B3420BD09DF90C3072
:1087C000B34207D09DF90D30B34203D0002005B06D
:1087D00070BC7047012085F8FE6205B070BC704720
:1087E0009C8E030090F9FE02704700BF30B505462D
:1087F00083B0D0F80C030C460AF0AAFD0D4AA4027F
:108800000146A2FB043200230C46D5F80C0300936A
:10881000920904210AF070FD0CB103B030BD009440
:10882000D5F80C032346224603210AF065FD03B068
:1088300030BD00BFD34D6210132906D800EB810173
:10884000D1F8140308B1FEF7C9BD0020704700BF7E
:10885000B0F81203704700BF01290CBFB0F8EE0258
:10886000B0F8F402704700BF13299ABF00EB8101F2
:10887000D1F814030020704710B5064C0021D4F83D
:10888000080309F033F8D4F804030021BDE81040D0
:1088900009F02CB8F463002090F8103303B9704746
:1088A00010B582B0D0F80C4309F0B6FE00230246A2
:1088B0000093204601210AF01FFD02B010BD00BF49
:1088C000F0B583B0002405462346D0F80C0300948D
:1088D000224603210AF010FD05F5447605F5587788
:1088E00056F8040F20B1FEF779FD08B10134E4B267
:1088F000BE42F5D195F8103343B1B4FA84F1490979
:108900000F2003B0BDE8F0400BF004BD03B0F0BD94
:108910000148FFF7DDBC00BFF46300200020704772
:1089200070B582B06D46044641F60A012846FFF74D
:10893000ADFA95E806002046FFF78EFA20460F4B69
:1089400040F8103B242200210DF058F80C4E0D4841
:108950000D4A60620023A363636384F83C300C25F6
:10896000062113232046666184F8355084F83910B7
:10897000A26284F83A3002B070BD00BFE08E0300FE
:10898000AC8E0300BC8E0300C48E0300416180F8EE
:1089900035207047816280F83A2070472DE9F04712
:1089A00096B00646FFF73AFA8046002845D1B369EB
:1089B000002B4DD0F369002B55D0C6F5275909F18E
:1089C0002F0906F10C0406F1300706F1340554F8BE
:1089D000043F02A86BB3FEF7DDFA336B2268EA4668
:1089E0009A4209EB050189B2504608BF42F6502170
:1089F000FFF74CFA9AE8060002A8FEF731FB02A83E
:108A0000FEF73EFB022102A8FEF73EFB297802A8F2
:108A1000FEF740FB02A8FEF741F8824602A8BAF131
:108A2000000F0ED12A782168FEF752FB02A8FEF74C
:108A30002DF8BC4205F10105C9D1404616B0BDE88C
:108A4000F087FEF723F8D046404616B0BDE8F08721
:108A50000BF0C0FA04460DF09DFEF369B46186F890
:108A60003600002BA9D10BF075FA04460DF092FEEA
:108A7000F46186F83700A0E7002201214270C0E9C6
:108A800001220170C2818281704700BF10B5044687
:108A9000017001B110BD0A2008F092FC606010BDA9
:108AA000037810B5044643B1002301226370C4E982
:108AB0000133E381A381227010BD406809F01EFAE2
:108AC000F2E700BF002381608281C381704700BF4D
:108AD000037870B504460D4693B94068144BA9025B
:108AE000A3FB013101238909637009F08BF890B968
:108AF000237800264FF0FF3566709BB9284670BD7D
:108B000003220021012008F019FC60600028E5D153
:108B10004FF0FF35F2E7E58923780026ADB26670A5
:108B2000002BEBD0606809F0E9F96660284670BD5B
:108B3000D34D62104078704738B504468089824230
:108B400028BF0246154619B1A0680CF02FFFA08976
:108B5000E389A26815FA83F3401B9BB22A44A081E3
:108B6000E381A260284638BD406820B100231A4640
:108B7000194608F057BC7047B1DF7047B2DF704745
:108B800008B50F4805F0A8FE0E490D4800F06EFA32
:108B900028B10D490A4800F069FA50B108BD0949E9
:108BA000074800F07FFA0849054800F05FFA0028FE
:108BB000F4D1BDE808400449014800F073BA00BF91
:108BC00060670020EC8E0300008F030070B586B054
:108BD0000323144606460D460093104603AB044A91
:108BE00005945021CDE903650BF026F906B070BD60
:108BF000758D020030B54FF6FF739A4287B0144668
:108C00000ED002460D46032300210093039208462E
:108C1000054A03ABCDE904540BF00EF907B030BDA3
:108C2000002007B030BD00BF898E020070B5164D20
:108C3000164EA0B00C46134601280CBF31462946FB
:108C4000224668461D460DF05FFD114B694607A898
:108C5000002200F095FC07A800F02EFD18B90024B2
:108C6000204620B070BD044607A800F021FB502824
:108C7000F5D10246294607A800F0ACFB07A800F092
:108C800003FC204620B070BD308F0300148F03001A
:108C900060670020F0B54FF6FF73A3B09A4200AFB3
:108CA0005DD0314B0C463149012818BF194607F1F8
:108CB00008000DF029FD2E4B07F10801002207F1F5
:108CC000240000F05DFC07F1240000F0F5FC6D4687
:108CD00048B9002407F1240000F0D6FB2046AD4639
:108CE0008C37BD46F0BD07F1240000F0E1FA061E06
:108CF00008DD07F1240000F0ABFB311807F1240078
:108D000000F088FB07F1240000F0D2FA061E08DD0F
:108D100007F1240000F09CFB311807F1240000F05B
:108D200079FB07F1240000F0C3FA0028D1DDC31D50
:108D300023F007036E46ADEB030D82B2694607F1DF
:108D400024007A6000F046FB204669467A680323D7
:108D5000FFF712FFB0FA80F46409B546BAE70024C1
:108D600020468C37BD46F0BD308F0300148F0300C2
:108D700060670020F0B51446AFB0012804AF0D467F
:108D800007BF528A3B493C49E28D07F108000DF0CC
:108D9000BBFC3A4807F108016E4600F067F900286D
:108DA0004BD1364B07F1080107F14400012200F0D6
:108DB000E7FB07F1440000F07FFC18B9AC37B5467B
:108DC000BD46F0BD502107F1440000F09FFA50224B
:108DD000214607F1440000F0D7F90023294628482E
:108DE000FB62C7E90933C7E90C33C7E90E333B64BB
:108DF000FFF73AFD07F124012022FEF7F9FA97F870
:108E0000243003B307F124000DF0C4FC013082B21A
:108E1000C1B207F144007A6000F078FA7A6807F18D
:108E2000240107F1440000F0AFF907F1440000F01D
:108E30002BFBAC37B546BD46F0BD07F108010F4826
:108E400000F088F9ADE794F8491094F84D3094F8A3
:108E50004E20039194F84A10029194F84B1001911E
:108E600094F84C10009107F1240006490DF04CFCD9
:108E7000C8E700BF148F0300308F03006067002035
:108E8000F46300204C8F03002DE9F043A3B00C469F
:108E900000AF00210323054616462046BA1DF9807F
:108EA000FFF76CFEFB88E84623B98C37C546BD4604
:108EB000BDE8F0830733DB08A8EBC3039D462046DB
:108EC000BA1D69460323FFF759FEE9460446002808
:108ED000EBD1284B28493246012D18BF194607F11E
:108EE00008000DF011FC254B07F1080107F12400E3
:108EF000012200F045FB07F1240000F0DDFB002813
:108F0000D3D0214607F1240000F084FA07F12400B1
:108F100000F0CEF9041E08DD07F1240000F098FAF5
:108F2000211807F1240000F075FA07F1240000F081
:108F3000BFF9041E08DD07F1240000F089FA2118AA
:108F400007F1240000F066FAFC8807F12400E1B282
:108F500000F0DCF92246494607F1240000F014F93C
:108F600007F1240000F090FA8C37C546BD46BDE8F5
:108F7000F08300BF308F0300148F03006067002070
:108F8000704700BF10B504460AF040FC204610BDF3
:108F900038B50A4B04460D46442240F80C3B0021EC
:108FA0000CF02CFD0023A560237104F15401012075
:108FB00008F0E8FB2065204638BD00BF748F030031
:108FC00070B504460E46006D4FF0FF3108F01AFEF2
:108FD000257955B98EB1A660314604F10C0005F033
:108FE000D5FAB0FA80F56D0925710023206D1A4677
:108FF000194608F017FA284670BDA668002EF4D06E
:10900000EAE700BF70B505464FF0FF31006D08F08C
:10901000F9FD2B7993B1002305F10C062B71304635
:1090200005F0C8FB044680B10023286D1A46194696
:1090300008F0F8F9B4FA84F0400970BDA96805F1A8
:109040000C0004F043FE0446EEE7A968304604F045
:109050003DFE04460028E7D1A968304605F096FA9F
:1090600004460028E0D101232B71DDE730B504462A
:1090700095B00D46006D4FF0FF3108F0C3FD294655
:1090800001AA04F10C0004F0F5FB00230246194686
:10909000206D14461A4608F0C5F9B4FA84F0400968
:1090A00015B030BD2DE9F04F83B00B7800AF2F2BFA
:1090B00078600CBF4C1C0C4606460D46006D4FF008
:1090C000FF3108F09FFD06F10C084FF0000917E092
:1090D000ADEB030D68468B4500F8019BEA4601DDC8
:1090E0000CF08CFC29465A4650460CF05FFC514669
:1090F000404603F0ADFC08B1113028D10134B5462B
:1091000020462F210DF020FBA0EB050B0BF10803EF
:109110006E460021044623F007035A460028D7D1A3
:109120002946404603F094FC60B901247A68002384
:10913000106D19461A4608F075F920460C37BD46E1
:10914000BDE8F08F113014BF00240124EEE70024A5
:10915000B546EBE738B504460D46006D4FF0FF31DC
:1091600008F050FD294604F10C0004F0DBFB00235D
:1091700002461946206D14461A4608F053F9B4FA0F
:1091800084F0400938BD00BF036970B504460D4640
:10919000186D4FF0FF31164608F034FD237D4BB1BA
:1091A000002522690023106D19461A4608F03AF985
:1091B000284670BD2069A1692A4633460C3003F069
:1091C0000DFF20EAE075ECE770B50369044682B054
:1091D000186D4FF0FF3108F015FD267D4EBB20695C
:1091E000A1690C3004F038FB05462069A1698DF8AF
:1091F000076001230DF107020C3004F079FA002812
:109200002069A169C8BF9DF807602A4600F10C00DB
:109210004FF00003D8BF4FF0FF3604F0EDFA22699B
:109220000023106D19461A4608F0FCF8304602B0CB
:1092300070BD4FF0FF36F2E738B5036904464FF0D2
:10924000FF31186D08F0DEFC237D4BB1002522694B
:109250000023106D19461A4608F0E4F8284638BD78
:109260002069A1690C3004F0F9FA05462069A1696A
:109270000C3004F0F1FA2D1AE9E700BF036910B5CC
:1092800004464FF0FF31186D08F0BCFC237D43B15C
:1092900022690023106DBDE810401A46194608F0F7
:1092A000C1B82069A1690C3004F0FEF8F0E700BFF6
:1092B00030B50369044683B0186D4FF0FF3108F0F4
:1092C000A1FC257D55B122690023106D19461A466F
:1092D00008F0A8F84FF0FF3003B030BD2069A16955
:1092E0000DF1070201230C3004F002FA23692A462B
:1092F00004462946186D2B4608F094F8002CCCBF84
:109300009DF807004FF0FF3003B030BD30B5036863
:10931000164A5B6883B093428DF807101ED103692B
:1093200004464FF0FF31186D08F06CFC237D53B1FB
:10933000002522690023106D19461A4608F072F8BC
:10934000284603B030BD2069A1690C3001230DF11E
:10935000070203F043FE20EAE075EAE701220DF17F
:10936000070198470546284603B030BD89910200A1
:1093700070B504460D4609F0E3FC01284FF02C00BF
:1093800020D007F08BFF0146A16131B123692A4645
:1093900003F10C0003F034FD08B1002070BD01237F
:1093A000237528460DF0F6F9461C09F0C9FC012882
:1093B00030460BD007F072FFE06129460DF0D1F97D
:1093C000012070BD0CF0D4FA0146DDE70CF0D0FAB4
:1093D000F2E700BF036970B504460D46186D4FF003
:1093E000FF31164608F00EFC237D4BB100252269A3
:1093F0000023106D19461A4608F014F8284670BD6F
:109400002069A1692A4633460C3004F071F90546FB
:10941000EDE700BF38B5036904460D46186D4FF0FF
:10942000FF3108F0EFFB237D4BB1002522690023BB
:10943000106D19461A4607F0F5FF284638BD206919
:10944000A1692A460C3004F0D7F9C543ED0FEDE7CA
:1094500038B5036904464FF0FF31186D08F0D2FBB0
:10946000237D4BB1002522690023106D19461A4651
:1094700007F0D8FF284638BD2069A1690C3004F0F8
:10948000EBF90546EFE700BF036970B504464FF0FE
:10949000FF31186D08F0B6FBA169D1B12069237DB9
:1094A0000C30FBB103F0D4FCA56909F049FC01289C
:1094B000284624D007F004FFE5690023A36135B1F5
:1094C00009F03EFC012828461FD007F0F9FE0023D2
:1094D000E36122690023106DBDE870401A46194609
:1094E00007F0A0BF04F062F8A56909F029FC012883
:1094F000284607D007F0E4FE0023A361E9E70CF05B
:109500003FFAD9E70CF03CFAF6E70CF039FADEE75F
:10951000816951B338B5037D044600690C30BBB195
:1095200003F096FCA56909F00BFC012828461DD024
:1095300007F0C6FEE5690023A36135B109F000FC20
:109540000128284618D007F0BBFE0023E36138BD90
:1095500004F02CF8A56909F0F3FB0128284608D08F
:1095600007F0AEFE0023A36138BD70470CF008FA87
:10957000E0E70CF005FAF5E70CF002FAE5E700BFCA
:10958000F0B504460025C4E906554A482361206029
:1095900084F820504FF47A700E46A06095B0186D94
:1095A000656025754FF0FF313546164608F02AFBF9
:1095B000A36913B12046FFF7ABFF206901AA0C3065
:1095C000294604F057F990B99DF80430112B3FD08B
:1095D00029462046FFF7CCFE60BB22690023106DB0
:1095E00019461A4607F01EFF204615B0F0BD02309E
:1095F000F3D1012EF1D109F0A3FB01284FF038007F
:109600004BD007F04BFE0146A1610029E5D023694C
:109610002A4603F10C0040F2031303F02DFC06462A
:109620000028DAD12069A1690C300223324604F007
:10963000E3F826752F2128460DF0C7F8034604F1FC
:10964000200003B15D1C294640220DF0ABF8C4E7B1
:1096500026B1012EEED140F2031700E0012709F0F8
:109660006FFB01284FF0380013D007F017FE0146BA
:10967000A1610029B1D022693B4602F10C002A46C3
:1096800003F0FAFB0028A8D1012E0AD0002323758D
:10969000D0E70CF06DF90146EAE70CF069F90146F4
:1096A000B2E72369A169024603F10C00022304F02A
:1096B000A3F8EBE7848F03008069003818BF01200E
:1096C000704700BF2DE9F04F85B0DDE90E4B109FCC
:1096D00081460D4690461E46002F63D0B8F1000F1C
:1096E00003D0D8F80030B34249D0D9F800002B6835
:1096F0009E422BD04369B4FBF3F203FB1242BAB98A
:10970000BB4215D8B7FBF3F203FB127AA7EB0A03AF
:1097100000930393436822461F4631465B46B84791
:1097200088B9039B57469B441C44002FD6D139E08F
:109730000093A21AC5E90062D0F804A0AB683146D4
:10974000D0470028CAD005B0BDE8F08F69684369EA
:10975000A142D0D8CA18A242CDD9A2EB040ABA4578
:10976000AB6828BFBA46611A524658461944BF1A18
:1097700054440CF01BF9D344002FAFD112E0D8F8B9
:109780000430A342B1D8D9F8000082691A44A24239
:10979000ADD9A2EB040ABA45D8F8081028BFBA46DA
:1097A000E31AE1E7002005B0BDE8F08F2DE9F04FA6
:1097B000074687B00D4672B30368D1F800B09046F3
:1097C0009A69D1E901104AB3013A01F101098618F9
:1097D000A9EB0009441E4FF0010A08E014F8012F1C
:1097E0009DF817309A4223D1A6423B6814D01A6ADA
:1097F000934509EB040320D20DF11702CDE90032A5
:10980000CDF808A05B46002241463846FFF75AFFD4
:109810000028E3D009DB3B68A8689A69FF210CF0B7
:10982000EDF84FF0FF332B60002007B0BDE8F08F5C
:109830006FF0330007B0BDE8F08F034B034A0448D4
:1098400012210CF019F800BFA08F0300D49103007F
:10985000C08F03002DE9F04F87B0DDF840A00592DE
:10986000002B64D0D0F800908B46D9F81C105C1EF9
:10987000A1F108084445074651D3B4FBF8F001387C
:109880000BF0E0FFD04500F10200A4EB8003B3FB36
:10989000F8F560D8BAFBF8F001380BF0D3FF861C5E
:1098A000AAEB8606B6FBF8F630460BF0CBFFAAEB28
:1098B000800006FB180AB54243D9D9F82020059B41
:1098C0004FF004090DF114080BE0012B45D93A685B
:1098D000126A934241D8012101FA04F42D1BB542CA
:1098E00030D9AC1BB4FA84F495FAA5F1C4F11F0485
:1098F000B1FA81F18C4228BF0C4693424FEA8401B1
:1099000032D20091CDE90189002259463846FFF74D
:10991000D9FE059B0028D8D007B0BDE8F08FD04510
:1099200088BF1346BAFBF8F00CD80025B4E71199AC
:109930004FF0FF320A60129A1846136007B0BDE874
:10994000F08F059B119A1360129B0020C3F800A0B2
:1099500007B0BDE8F08F0026ADE7064B064A074882
:109960004FF48F610BF088FF054B064A0348122124
:109970000BF082FF40900300F4910300C08F0300BE
:10998000A08F0300D49103002DE9F04F89B0074662
:10999000149C129D8B4692461E46002C55D0DBF837
:1099A0000030B3425CD0013340F0A1803868826956
:1099B000B5FBF2F302FB1353002B4AD1A24248D865
:1099C000B4FBF2F302FB13430593E31A00930493F1
:1099D0008468139B2A463146A04700287ED1BAF1FD
:1099E000000F29D0049B3BB3139B5C1E049B04EB2C
:1099F0000309139B05F10108A8EB030807E014F81D
:109A0000012F9DF81F309A4266D14C4514D03B6817
:109A10001A6A964208EB040363D2012202920DF106
:109A20001F02CDE900325146334600223846FFF787
:109A300049FE0028E3D051DB139A049B059C114694
:109A4000194413911D44002CA9D1002009B0BDE890
:109A5000F08FEB1ACBE90063DBF80030B342A2D100
:109A6000DBF80410A9429ED83A6892690A44AA42D7
:109A700099D9A2EB0508A045DBF8080028BFA0464D
:109A8000691A0844424613990BF090FF38681399FD
:109A9000826945444144B5FBF2F302FB1353A4EB46
:109AA00008041391002B7FF478AFDBF800104B1CF7
:109AB0003FF473AF0092DBE90123D0F80880C04780
:109AC00060B9524659463846FFF770FE00283FF409
:109AD00064AF09B0BDE8F08F6FF0330009B0BDE8A6
:109AE000F08F064B064A074812210BF0C5FE064BC5
:109AF000064A0448B7210BF0BFFE00BFA08F030049
:109B0000D4910300C08F03006C900300E491030024
:109B10002DE9F04F0446D2E9003091B04FF0010B2F
:109B20000A9300230B90069104F114080DF1280903
:109B30000593236859F8045B1B6A9D427BD210236E
:109B40000DF1300A0022CDE901A300922B464146D7
:109B50002046FFF7B7FD002839D1059B002B60D1C7
:109B60000D9B23F00043132B4FD92268D2699342F7
:109B70004BD84FF0FF3309A810225146099304F047
:109B800037FE0D9B23F00043102B28D0CDF81C90FE
:109B900010260DF12307994607E0013601223946C8
:109BA00009A804F025FEB14517D023681B6A9D4221
:109BB00041D20123CDE9017300962B460022414694
:109BC0002046FFF77FFD0028E7D0DDF81C9010F15C
:109BD000340F1AD011B0BDE8F08FDDF81C90099B4E
:109BE0009BB99AE80F000BF0010610AF07EB860C4B
:109BF000069F1026FE603E467D601C365CF8185CB1
:109C0000BD6086E80F0001230593BBF1020F0FD161
:109C1000059B002B14BF00206FF0330011B0BDE88E
:109C2000F08F069A0C9BD2699B1A002B98DAECE70E
:109C30004FF0020B7DE7034B034A044812210BF05F
:109C40001BFE00BFA08F0300D4910300C08F030050
:109C50004368013337D02DE9F0438368013383B083
:109C6000044628D015460E464FF000084FF0010973
:109C70006A462946CDE90089FFF74AFFE0B905F1B8
:109C800024086B6A591C16D0AF6A7A1C13D0D6F818
:109C900000C09C4513D0D6F804E0BE450FD07345F4
:109CA0004246294620460AD0BC4508D0FFF730FF7F
:109CB0000028E6D000E0002003B0BDE8F0830120DA
:109CC00003B0BDE8F0830020704700BF2DE9F041EC
:109CD000D1F820C00C46C9682CF00043043B01F1C8
:109CE0000C069E4284B0054617461FD904F124088D
:109CF000102612E0424621462846FFF709FF90B998
:109D0000D4F820C0A169E6602CF00043043B143174
:109D10001B2BA1614FF0100108D8BCF1000FE9DB4B
:109D200039606FF0010004B0BDE8F0812A46636835
:109D300052F8140B066AB34207F104001AD20C263B
:109D4000CDE900100296114628460022FFF7BAFC22
:109D50000028E8D17B79BA79FD79A16904331344ED
:109D6000E2683A602B441A440B44E260A36104B0F9
:109D7000BDE8F081024B034A034812210BF07CFD41
:109D8000A08F0300D4910300C08F0300F0B593B0FF
:109D900000260D46012707A96A46CDE9006704465B
:109DA000FFF7B6FE064610B121E0831C22D1109BBE
:109DB00001331CD0119B013319D010AA07A92046EA
:109DC000FFF7A6FEB0B903AA07A92046FFF77EFF5A
:109DD0000028EAD19DF91030002B4FF008022946E7
:109DE00005A8F0DB0BF0D4FD0028ECD101263046AD
:109DF00013B0F0BD0646304613B0F0BD2DE9F04774
:109E0000164600240122C6E90942824688461D46BC
:109E100006F124094A4631465046FFF779FE0746C7
:109E200068B92A4631465046FFF750FF50B1831CAF
:109E30001FD1736A013302D0B36A0133EAD13846C5
:109E4000BDE8F0872C7904F07004202CE9D1AB68D0
:109E5000D8F80020934208D0E868D8F80410884267
:109E600003D08B4201D08242DBD101273846BDE8C6
:109E7000F0870746E3E700BF2DE9F04F2DED028B99
:109E80008DB090461C46099340F622032268C8F81C
:109E900004300892D0E90123724EC8F808208246A7
:109EA0008946C8F80C3000F1140B089D314628464D
:109EB0000CF09FFC2B46034404463146184605939C
:109EC0000CF057FC0128049000F0B080022804D167
:109ED000059B1B782E2B00F0B280DDE90423134490
:109EE00008931F460124314638460CF082FC074493
:109EF000384631460CF03DFC78B1022802D00134DE
:109F00000744F0E73B782E2BF9D17B782E2BF6D146
:109F1000013CF5D1BB1C0893C7E7059C20780028BD
:109F20005FD0099B1C6098F80430222B40F08D8094
:109F300008F108031A464946504608EE103AFFF762
:109F4000E7FD00284DD1049B013B23440793424683
:109F500049465046FFF7BAFE002842D198F804203F
:109F600002F07F03112B01D0222BF0D198F807309B
:109F700004998B42EBD1D8F8003098F8051098F886
:109F80000650D9F8047004330B441D44049BA3B35A
:109F9000059BCDF818800135DDF81C80ED1A5C1E9C
:109FA00007E014F8012F9DF82F309A421ED1444546
:109FB0001FD0DAF800301A6A974205EB040347D243
:109FC000012202920DF12F02CDE9003259463B46A3
:109FD00000225046FFF776FB0028E2D0DDF818801B
:109FE00009DA0DB0BDEC028BBDE8F08FDDF818800A
:109FF000ADE7DDF8188098F8042013067FF555AF1B
:10A00000DAF8043001330CD0DAF80830013308D024
:10A0100018EE101A5046FFF7B9FE00281ED198F826
:10A02000042002F07F0288F804203EE72B5D2E2BEF
:10A030007FF453AFDDE904231344089335E7059B10
:10A040005B782E2B7FF449AFF4E76FF01300C8E77D
:10A05000054B064A064812210BF00EFCC1DB6FF0DF
:10A060000100BEE788900300A08F0300D491030095
:10A07000C08F03002DE9F04F8B469DB00BF1040318
:10A0800004930BF10C03CDE9053B016B04464FF043
:10A0900001080025D4E90D3010E05A09E66B0138BB
:10A0A0005F1CA063676356F822C003F01F0208FA22
:10A0B00002F212EA0C0F00F027813B469942ECD1E4
:10A0C000002800F0F2812268E36AD2E908621944AC
:10A0D000904228BF1046B1FBF6F306FB1311206334
:10A0E000E162E06B6563D20800210BF087FC6368D6
:10A0F000013300F05781A368013300F0538100223F
:10A1000001230025CDE9082304F1140701222E467E
:10A11000D4F800C0E16ADCF82030206B591A0E44F4
:10A12000B6FBF3F503FB1565854210D26909E26BB6
:10A1300005F01F0552F8213008FA05F51D4342F8D5
:10A140002150DCF82030E16A099A206B591A0A4440
:10A15000B2FBF3F103FB112383420AD25809E16BEE
:10A1600003F01F0351F8202008FA03F3134341F8CA
:10A17000203008AA11A92046FFF7CAFC002840F0A9
:10A180000E810C25149A24E02068129B006A8342F9
:10A1900080F01A820EA9CDE90021029500223946ED
:10A1A0002046FFF78FFA002840F0F9809DF839200B
:10A1B0009DF83A309DF83B60149904321A449DF89A
:10A1C0003830324403F070030A44102B149200F02C
:10A1D000EB80199B23F00043043B02F10C009842F2
:10A1E000D2D9DDE91A62701CCDE9086201D0511C98
:10A1F0008ED1D4F80C904D46B9F1000F00F0DE81FD
:10A20000EB69DA0340F156816F69002F00F052814B
:10A21000D4F800A0DAF81C60013F083EB742C0F055
:10A22000CF81B7FBF6F001380BF00CFB0230A7EB47
:10A230008002B2FBF6F6D4F830E0E16A2B690795AC
:10A2400005F12C000546DAF82020704604F11409C7
:10A250008E4601469818A0EB0E0EBEFBF2F002FBF4
:10A2600010E28A420AD25709E06B02F01F0250F84E
:10A27000271008FA02F20A4340F82720002E00F0C7
:10A280001781DAF8202006F00107C7F1020A93428D
:10A290004FEA8A0080F098810BA90022CDE90110D5
:10A2A000009249462A462046FFF70CFA002876D14C
:10A2B0000AF1FF3CD4F800A013E0BBFBF2F302FB71
:10A2C00013B38B424FF0010014D24FEA531EE16BDF
:10A2D00003F01F0351F82E2000FA03F3134341F853
:10A2E0002E30D4F82CE0DAF820200B9B216BA2EB67
:10A2F0000E0B9B446045E0DB1CAB03EB8C0C023F78
:10A300005CF8443C3E44A5E72068E26A016A1344D5
:10A31000B3FBF1F201FB1233049A42F8043BD4E997
:10A320000C139942049207D10FE0A26B0133013A5A
:10A330008B42C4E90D3208D05D0903F01F0256F8C4
:10A34000255008FA02F22A42EFD1DDE904329342A5
:10A350007FF49FAEDDF818B0006ADBF8043083426A
:10A360000BF11C0204F1140180F02E8104250192EE
:10A370000022204602950092FFF7A4F9002840F041
:10A380008B80DBF81C304FF0FF32CBE90922142020
:10A3900001331021CBE90730CBF80C1000201DB0A1
:10A3A000BDE8F08F216B75E6109B002B3FF411AFD9
:10A3B000D4F800A0DAF81C6003F1FF3BA6F108090D
:10A3C000CB4570D3BBFBF9F001380BF03BFA861C90
:10A3D000ABEB8606B6FBF9F60F9BE16ADAF82020B4
:10A3E000D4F830E09818401AB0FBF2F102FB1102E9
:10A3F00072450BD24FEA521CE16B02F01F0251F87A
:10A400002C0008FA02F2024341F82C20002E3FF4FF
:10A41000B9AEDAF8202006F00109C9F1020A934228
:10A420004FEA8A0080F0D0800BA90022CDE901100C
:10A43000009239462046FFF745F90028AFD10AF1CE
:10A44000FF3CD4F800A013E0BBFBF2F302FB13B314
:10A4500073454FF0010014D24FEA531EE16B03F035
:10A460001F0351F82E2000FA03F3134341F82E3056
:10A47000E16ADAF820200B9BD4F830E0A2EB010B64
:10A480009B446045E0DB1CAB03EB8C0CA9F102099B
:10A490005CF8443C4E44A5E710F1340F3FF471AF33
:10A4A0001DB0BDE8F08F064696E76FF01B0076E71B
:10A4B000079DEB699B037DD52F6A002F7AD0D4F8D6
:10A4C00000A0DAF81C60013F083EB7427AD3B7FB20
:10A4D000F6F001380BF0B6F90230A7EB8003B3FBBE
:10A4E000F6F6D4F830E0E16A6B6A079505F12C00C6
:10A4F0000546DAF82020704604F114098E4601461C
:10A500009818A0EB0E0EBEFBF2F002FB10E28A429E
:10A510000AD25709E06B02F01F0250F8271008FA20
:10A5200002F20A4340F82720002E42D0DAF8202019
:10A5300006F00107C7F1020A93424FEA8A0043D2AC
:10A540000BA90022CDE90110009249462A46204677
:10A55000FFF7B8F800287FF422AF0AF1FF3CD4F8E7
:10A5600000A013E0BBFBF2F302FB13B38B424FF0EE
:10A57000010014D24FEA531EE16B03F01F0351F8A0
:10A580002E2000FA03F3134341F82E30D4F82CE0C8
:10A59000DAF820200B9B216BA2EB0E0B9B4460454D
:10A5A000E0DB1CAB03EB8C0C023F5CF8443C3E440C
:10A5B000A6E7079D2D68002D7FF422AE216B68E58C
:10A5C000002638E600268CE7024B034A0348122196
:10A5D0000BF052F9A08F0300D4910300C08F030049
:10A5E0002DE9F04F2DED028B9BB00125044604911F
:10A5F000A9464FF00008D4E90D31D4F830C00FE07F
:10A600005A09E76B0139581CA163606357F822604F
:10A6100003F01F0205FA02F2324200F02A810346DB
:10A620009C45EDD1002900F052822368E66AD3E907
:10A630000802B444914228BF1146BCFBF0F300FB72
:10A6400013C32163E362E06BC4F83480D2080021B5
:10A650000BF0D4F963680133CDD0A3680133CAD0BD
:10A6600000220123CDE906230122002004F1140772
:10A6700096462268E36A116A266BCB1A03EB000C3C
:10A68000BCFBF1F001FB10C0864210D94609E16B1A
:10A6900000F01F0051F8263005FA00F0184341F889
:10A6A0002600D4E90B36116ADDF81CE0CB1A73449E
:10A6B000B3FBF1F201FB1233B3420AD25809E16B4A
:10A6C00003F01F0351F8202005FA03F3134341F868
:10A6D000203006AA0FA92046FFF71AFA002840F0FA
:10A6E000E9804FF00C08129A0CAE23E02168109B11
:10A6F000096A8B4280F0F5810092CDE90168002261
:10A7000039462046FEF7DEFF002840F0D3809DF852
:10A7100031209DF832109DF833C0129B04320A4458
:10A720009DF8301062441A4401F07003102B12920D
:10A7300000F0C580179B23F00043043B02F10C019D
:10A740009942D3D9DDE9180E411CCDE9060E02D09D
:10A75000BEF1FF3F8DD1D4F80C804646B8F1000F12
:10A760003FF447AFF369DA0340F128817769002F9E
:10A7700000F02481D4F800A0DAF81C30013FA3F1E6
:10A7800008084745C0F0A881B7FBF8F001380BF086
:10A7900059F80230A7EB8007B7FBF8F704F1140073
:10A7A000E16AD4F830C0DAF8202033690596834690
:10A7B00006F12C0008EE100A0E4661469818A0EB30
:10A7C000060EBEFBF2F002FB10E28A420BD2E06BF7
:10A7D0004FEA521C02F01F0150F82C2005FA01F13B
:10A7E0000A4340F82C20002F00F0E680DAF8202001
:10A7F00007F00108C8F1020A93424FEA8A0080F08C
:10A80000708109A90022CDE901100092594618EE85
:10A81000102A2046FEF756FF00284BD10AF1FF3CD4
:10A82000D4F800A012E0BEFBF2F302FB13E38B426C
:10A830004FF0010012D25E09E16B03F01F0351F8E3
:10A84000262009FA03F3134341F82630E66ADAF8C2
:10A850002020099B216BA2EB060E9E446045E2DBA3
:10A860001AAB03EB8C0CA8F102085CF8443C47449B
:10A87000A4E72168E26A096A1344B3FBF1F201FB21
:10A880001233049A1360D4E90C03834211D00125DA
:10A8900006E0A26B0133013A8342C4E90D3208D0CD
:10A8A000590903F01F0257F8211005FA02F20A4273
:10A8B000EFD100201BB0BDEC028BBDE8F08F0E9EE7
:10A8C000002E3FF411AFD4F800A0DAF81C20013EAE
:10A8D000A2F1080B5E450AD3B6FBFBF001380AF083
:10A8E000B1FF0230A6EB8003B3FBFBF31846E16A2D
:10A8F000D4F830C00D9BDAF8202008EE107A8E468E
:10A90000074661469818A0EB0E0EBEFBF2F002FB64
:10A9100010E28A420AD25609E06B02F01F0250F898
:10A92000261005FA02F20A4340F82620002F00F014
:10A93000D580DAF8202007F00106C6F1020A93421A
:10A940004FEA8A0080F0CD8009A90022CDE90110EC
:10A95000009218EE101A2046FEF7B4FE0028A9D186
:10A960000AF1FF3CD4F800A013E0BBFBF2F302FBBA
:10A9700013B38B424FF0010014D24FEA531EE16B28
:10A9800003F01F0351F82E2009FA03F3134341F893
:10A990002E30D4F82CE0DAF82020099B216BA2EBB2
:10A9A0000E0B9B446045E0DB1AAB03EB8C0C023EC4
:10A9B0005CF8443C3744A5E7059EF3699B0340F1EE
:10A9C0008180376A002F7DD0D4F800A0DAF81C20EF
:10A9D000013FA2F1080847457CD3B7FBF8F00138E6
:10A9E0000AF030FF0230A7EB8007B7FBF8F704F15D
:10A9F0001400E16AD4F830C0DAF82020736A0596B2
:10AA0000834606F12C0008EE100A0E46614698189F
:10AA1000A0EB060EBEFBF2F002FB10E28A420BD264
:10AA2000E06B4FEA521C02F01F0150F82C2005FA8F
:10AA300001F10A4340F82C20002F42D0DAF8202000
:10AA400007F00108C8F1020A93424FEA8A0048D28F
:10AA500009A90022CDE901100092594618EE102AEA
:10AA60002046FEF72FFE00287FF424AF0AF1FF3CBA
:10AA7000D4F800A012E0BEFBF2F302FB13E38B421A
:10AA80004FF0010012D25E09E16B03F01F0351F891
:10AA9000262009FA03F3134341F82630E66ADAF870
:10AAA0002020099B216BA2EB060E9E446045E2DB51
:10AAB0001AAB03EB8C0CA8F102085CF8443C474449
:10AAC000A5E7059E3668002E7FF44CAE91E56FF049
:10AAD0001B00EFE600278AE700275FE618EE107AF2
:10AAE00001E6034B034A044812210AF0C5FE00BFE9
:10AAF000A08F0300D4910300C08F03002DE9F04F15
:10AB0000044687B00F4600F1140905A92046FFF757
:10AB100067FD064640B920680599C3689847064610
:10AB200030B110F1340FF0D0304607B0BDE8F08FEF
:10AB3000BB6A83B307F12C0A35460DF1130804F103
:10AB4000200B13E02268059B126A934247D2012230
:10AB5000CDE9018200954A4659462046FEF714FF8A
:10AB6000002831D1BB6A0135AB4214D922687B6A17
:10AB7000126A93422DD20122CDE9018200955246FC
:10AB800049462046FEF79EFD0028DBD006463046AB
:10AB900007B0BDE8F08F2368A16A9A69786B0AF064
:10ABA00005FFD4E908122368A06AC7E90B12FF2148
:10ABB0009A690AF023FF059B4FF0FF32304622626C
:10ABC0007B6207B0BDE8F08F10F1340F9DD00646D0
:10ABD000DDE7064B064A074812210AF04DFE034BFB
:10ABE000054A04489C210AF047FE00BFA08F0300DD
:10ABF000D4910300C08F0300E49103002DE9F04FCE
:10AC00002DED028BC9B004462C2200211CA80AF0AD
:10AC1000F5FE4FF00043282227A8002124930AF0D4
:10AC2000EDFE23681B6A01223192002B00F0C981DE
:10AC300000274FF00C09319B013300F0B18130AA9D
:10AC400027A92046FEF764FF0546002840F00C8146
:10AC5000249B002BC0F20E816368013300F04E810B
:10AC6000A368013300F04A8132AE32460CAB25A90D
:10AC70002046FFF7C3F80028C0F2F58000F03E81BF
:10AC80000E9B259A0F982699934200F090818B4253
:10AC900000F09381DDE91D51239A269020682593C9
:10ACA00001320023CDE91D150B9505932392C3684E
:10ACB0000A9198474FF0FF380546F0B115F1340F6F
:10ACC00040F0D2800A9BC4F82080012B40F27981A9
:10ACD0000B9B012B40F275811DA92046FFF780FCDC
:10ACE0000546002840F0C08020681D990123059387
:10ACF000C368984705460028E0D123AF0DF1500AFC
:10AD0000A146102239465046CDF8508003F070FD20
:10AD100059F8202B1D9B126A934280F01582102651
:10AD2000CDE900572A46029649462046FEF72CFEFA
:10AD300005460028C2D1249B23F00043043B102B7E
:10AD400032D904F1140B3DAF22680B9B126A934277
:10AD500080F0F4810122CDE901720096002259466B
:10AD60002046FEF7AFFC054600287DD1012239467A
:10AD7000504603F03DFD22681D9B126A934280F00D
:10AD8000E3810122CDE9017200962A464946204618
:10AD9000FEF7FAFD0546002890D1249B23F00043DE
:10ADA0000136043B9E42CFD322681D9B126A934218
:10ADB00080F0CA8104220292CDE9006A494600224D
:10ADC0002046FEF7E1FD054600287FF477AF216AB3
:10ADD000C4F814804A1C12D02068A36A82690092C9
:10ADE0008568626AA847054600287FF467AF236834
:10ADF000A06A9A69FF210AF001FEC4F82080206849
:10AE000003699847054600287FF458AF249EDDF873
:10AE100074B0CDF8F48026F0004604F11403043E2B
:10AE200008EE103A00F0968107460DF1400908E05F
:10AE30000137012249463DA803F0DAFCBE4240F248
:10AE4000898123681B6A9B4580F078810123CDE9C5
:10AE5000019318EE101A00975B4600222046FEF779
:10AE600031FC0028E4D00546284649B0BDEC028BF1
:10AE7000BDE8F08F32AE4FF00008324627A92046D9
:10AE8000FEF724FFF0B1831CEDD10DF19C0CBCE862
:10AE90000F001CAE0FC6BCE80F000FC69CE80700F1
:10AEA00086E8070023681B6A01379F4280F089808B
:10AEB000309B01337FF4BFAE284649B0BDEC028B16
:10AEC000BDE8F08F9DF9CC309DF8CC20002BD4DA72
:10AED0006368013341D0A36801333ED034A92046D2
:10AEE000FEF754FF0028BEDB35D0324627A92046A6
:10AEF00001F0C8F90028C0D00546B5E7DDE93050BB
:10AF0000DDE91D21239B1D91CDE9255001332393BC
:10AF100008911E9209924FF0000801262068C3682C
:10AF20009847054600284FD015F1340F9CD1089B57
:10AF30004FF0FF32012B226243D9099B012B40D9EC
:10AF40001DA92046FFF74CFB054600288CD11D9912
:10AF50004FF00108E2E79DF8CC20DDF8C8E09DF84D
:10AF6000CFC0CDF8F89002F07F020EF10C0033A9AB
:10AF7000CDE93F198DF8CC20419001233DAA27A9A6
:10AF80002046CDF80C81CDF8F4E0CDF808C1CDF81D
:10AF900010C100F0F9F900283FF46FAF054663E7F0
:10AFA0000025284649B0BDEC028BBDE8F08F8842F1
:10AFB0003FF461AF8B427FF46DAE82427FF46AAEA4
:10AFC00059E76FF033054FE723AFA2464FF0FF3349
:10AFD0001022394607A8079303F00AFC5AF8202BE1
:10AFE0001D9B126A934280F0AF804FF01009CDE9AB
:10AFF00000572A46CDF8089051462046FEF7C4FC7B
:10B000000546002890D1249B23F00043043B102BDD
:10B0100034D904F1140B10AF2268099B126A9342D1
:10B0200080F08C80CDE90176CDF800900022594661
:10B030002046FEF747FB054600287FF415AF0122A6
:10B04000394607A803F0D4FB22681D9B126A93427D
:10B050007AD22A46CDE90176CDF8009051462046B5
:10B06000FEF792FC054600287FF45EAF249B23F098
:10B07000004309F10109043B9945CDD322681D9B8A
:10B08000126A934260D2042207A9CDE9009102928C
:10B09000514600222046FEF777FC054600287FF443
:10B0A00043AF216A4FF0FF37B942676111D0206882
:10B0B000A36A826900928568626AA84705460028EB
:10B0C0007FF432AF2368A06A9A69FF210AF096FCE8
:10B0D0002762206803699847054600287FF424AF5B
:10B0E000249FDDF874B027F000474FF0FF3204F1E1
:10B0F0001403043F08EE103A109245D081460DF13A
:10B10000F40A08E009F101090122514610A803F0F0
:10B110006FFB4F4538D923681B6A9B450ED2CDE99A
:10B1200001A618EE101ACDF800905B4600222046CA
:10B13000FEF7C8FA0028E5D0054695E68E4B8F4A03
:10B140008F4812210AF098FB8B4B8E4A8C489C2129
:10B150000AF092FB3D9A149B9A427FF4B3AD059B93
:10B16000002B30D12369002B3FF47EAE5C681D9A22
:10B17000944271D099681E9881426DD084426BD000
:10B180008A4269D01B68EEE7109A079B9A427FF4C7
:10B19000CEAEB8F1000F40F082802369002B3FF45F
:10B1A00063AE5C681D9A944200F0C48099681E9852
:10B1B000814200F0BF80844200F0BC808A4200F0EF
:10B1C000B9801B68EAE7636801334ED0A368013396
:10B1D0003DAE0AAF4BD03246394610AB2046FEF7A3
:10B1E0000DFE0028FFF63FAE41D0DDE91D03109FA4
:10B1F000149731460C370C2612909DF8470018978B
:10B20000139311AF15961796199000261B9052466E
:10B210000123204616971A9600F0B6F800287FF40E
:10B2200022AE0A98636898421AD00B9AA1688A42A3
:10B2300016D0884214D0934212D00122013384F8F0
:10B2400040208FD0A36801338CD02046FFF7D6FC76
:10B25000002887D0054607E65A601E9A9A6091E753
:10B26000DDE91D32C4E90132E7E73DAE0AAF3946F8
:10B2700032462046FEF7ECFC0028FFF6F4AD3FF422
:10B2800071AF3146DDE91D60002347901A46204624
:10B29000469600F079F800283FF464AFDAE7636877
:10B2A000013350D0A36801333DAE4DD0324610ABD0
:10B2B00008A92046FEF7A2FD0028FFF6D4AD43D032
:10B2C000DDE91D02109B14930C33189312900C238C
:10B2D00011A89DF8477013923146159300261793D5
:10B2E0001690012314AA204619971B971A9600F06E
:10B2F0004BF800287FF4B7AD0898636898421DD0DA
:10B30000099AA1688A4219D0884217D0934215D071
:10B310000122013384F840203FF43FAFA36801339A
:10B320003FF43BAF2046FFF769FC00283FF435AF00
:10B33000054699E55A601E9A9A6042E7DDE91D329A
:10B34000C4E90132E4E73DAE08A932462046FEF7E3
:10B350007FFC0028FFF687AD3FF41FAF3146DDE9E3
:10B360001D60002347901A462046469600F00CF8D0
:10B3700000283FF412AFDBE7A08F0300D491030055
:10B38000C08F0300E49103002DE9F04F2DED028BF7
:10B39000CE690D46D1E90141A5B0013690462A1D7E
:10B3A00069608246EE61AC600892059383B11E46E7
:10B3B000D8F80400D8F80C302A6A1B1A022E1A4456
:10B3C00005D1D8F81C70D8F814603A44921B2A6250
:10B3D000DAF80000CDF818800023CDE90B140993AA
:10B3E000C36898470446E0B114F1340F3DD10B9B7C
:10B3F0004FF0FF32012BCAF8202034D90C9B012BCF
:10B4000031D908995046FFF7EBF8044668BBDAF8E3
:10B410000000696801230993C3689847044600281F
:10B42000E2D105F11C07D0464FF0FF331022394618
:10B4300011A8119303F0DCF958F8202B6B68126AFD
:10B44000934280F00D811026CDE9004722460296F6
:10B4500041465046FEF798FA834660B110F1340F2A
:10B46000C5D0044601E06FF03304204625B0BDECA2
:10B47000028BBDE8F08F2B6A23F00043043BB342FC
:10B480006BD90AF1140308EE103A37460DF164093E
:10B4900034E0DAF800200C9B126A934280F0E680D8
:10B4A0000122CDE9019218EE101A009700225046B1
:10B4B000FEF708F904460028D7D10122494611A811
:10B4C00003F096F9DAF800206B68126A934280F074
:10B4D000C7800122CDE9019200962246414650469E
:10B4E000FEF752FA044600287FF47EAF013701369A
:10B4F0002B6A23F00043043B9E422ED2059B5B4502
:10B50000C7DD069A4FEA0B1302EB0B11D3580791D4
:10B51000BB42BED10C4611A8D1E9021203F068F972
:10B52000DAF800206B68106AE168A268834280F054
:10B530009780CDE901210096002241465046FEF752
:10B5400023FA044600287FF44FAF079B5A68DB6854
:10B550000BF1010B17441E44CAE7DAF800206B68B0
:10B56000126A93427CD2042211A9CDE900610292B1
:10B57000414600225046FEF707FA044600287FF4B1
:10B5800033AFDAF820104FF0FF339942CAF8143085
:10B5900019D0DAF80000DAF828308269009284685D
:10B5A000DAF82420A047044600287FF41DAFDAF81B
:10B5B0000030DAF828009A69FF210AF01FFA4FF0EC
:10B5C000FF33CAF82030DAF80000036998470446D0
:10B5D00000287FF409AF2B6AD5F8048023F00043DC
:10B5E0004FF0FF32B3F1040919920AF1140B1DD088
:10B5F00007460DAE07E001370122314619A803F0D6
:10B60000F7F8B94512D0DAF800301B6A98452DD208
:10B610000123CDE901630097434600225946504675
:10B62000FEF750F80028E6D004461EE7199A119B51
:10B630009A427FF4DCAE099B13BBDAF81030002B82
:10B640003FF413AF5E686A68964215D09968A8689F
:10B65000814211D086420FD08A420DD01B68EEE79E
:10B660003D4B3E4A3E489C210AF006F93A4B3D4A82
:10B670003B4812210AF000F95A60AA689A60EDE787
:10B68000DAF80430013347D0DAF80830013319AE64
:10B690000BAF43D0324639460DAB5046FEF7AEFBFA
:10B6A0000028C1DB3AD0D5E901030D9F119731463F
:10B6B0000C370C260F909DF83B00159710930EAF9A
:10B6C0001296149616900026189011AA012350463F
:10B6D00013971796FFF758FE0028A5D10B98DAF8B4
:10B6E0000430984231D00C9ADAF808108A422CD0F3
:10B6F00088422AD0934228D0012201338AF8402080
:10B700009BD0DAF80830013397D05046FFF776FA2D
:10B71000002892D00446A8E619AE0BAF394632464F
:10B720005046FEF795FA0028FFF67EAF85D03146E9
:10B73000D5E90160002323901A4650462296FFF770
:10B7400023FE00283FF479AFE4E76B68CAF80430C1
:10B75000AA68CAF80820CFE7A08F0300E49103008D
:10B76000C08F0300D49103002DE9F04F2DED028B23
:10B770000D46BDB0824616461F4601F1240809E079
:10B78000002B52DA424629465046FEF7C1F90028FE
:10B7900040F008817479B179F279DAF800002B6A07
:10B7A00004340C441444C1691C448C42E8D8B446A7
:10B7B0001E1F4CF8046BE96924974C1C6F68A9683C
:10B7C00025920C3313442B62C5E901170C23002288
:10B7D00021932B1DCDF880C01E96229613971291AF
:10B7E000EC611F92239207920693C3689847044620
:10B7F000002800F0DE8014F1340F65D1129B4FF069
:10B80000FF32012BCAF820205CD9139B012B59D998
:10B8100006995046FEF7E4FE0446002854D1012361
:10B820006968DAF800000793DFE7AC46BCE80F0070
:10B8300026AC0FC4BCE80F000FC49CE8070084E8E6
:10B84000070029465046FEF715FC044600283BD168
:10B85000DDE92F122B6A69623046191FAA6240F88F
:10B86000041BF6791794CDE91B47334406941691CF
:10B870006C681A91A968EA691D960C332B62C5E9B8
:10B8800001140C23013219932B1D18900F940E9163
:10B89000EA6107934FF00109DAF80000C36898479E
:10B8A0000446002800F0AA8014F1340F0CD10E9B3E
:10B8B0004FF0FF32012BCAF8202003D90F9B012B38
:10B8C00000F2BF806FF0330420463DB0BDEC028B28
:10B8D000BDE8F08FDAF800206B68126A934280F0BE
:10B8E0004C8204220BA9CDE900610292414600225C
:10B8F0005046FEF749F804460028D5D1DAF8201062
:10B900004FF0FF339942CAF8143018D0DAF800002B
:10B91000DAF82830826900928468DAF82420A04797
:10B9200004460028C0D1DAF80030DAF828009A6915
:10B93000FF210AF063F84FF0FF33CAF82030DAF83D
:10B9400000000369984704460028ADD12E6A26F00E
:10B9500000464FF0FF33321F0C930AF1140B6B6853
:10B96000059200F0EA81074631AE1C4609E001224B
:10B9700031460CA802F03CFF059B0137BB4200F0AA
:10B98000DC81DAF800301B6A9C4280F0FC81CDE952
:10B99000016900972346002259465046FDF792FE62
:10B9A0000028E4D0044620463DB0BDEC028BBDE843
:10B9B000F08F05F11C07D0464FF0FF3310223946B7
:10B9C00009A8099302F014FF58F8202B6B68126A3B
:10B9D000934280F0D2811026CDE90047224602969C
:10B9E00041465046FDF7D0FF8346002800F0AA806C
:10B9F00010F1340F3FF402AF5C4665E705F11C0718
:10BA0000D0464FF0FF33102239460BA80B9302F0BB
:10BA1000EFFE58F8202B6B68126A934280F0AD81DC
:10BA20001026CDE900472246029641465046FDF7D2
:10BA3000ABFF834688B110F1340F3FF438AF5C465A
:10BA400042E707995046FEF7CBFD044600287FF4F5
:10BA50003BAF0123696806931EE72B6A23F000437E
:10BA6000043BB3427FF636AF0AF1140308EE103AF6
:10BA7000374638E0DAF800200F9B126A934280F0D4
:10BA800082810CAACDE9007218EE101ACDF8089048
:10BA900000225046FDF716FE044600287FF414AF3E
:10BAA00001220CA90BA802F0A3FEDAF800206B68B3
:10BAB000126A934280F061810CAACDE90062CDF850
:10BAC0000890224641465046FDF75EFF0446002896
:10BAD0007FF4EAAE013701362B6A23F00043043BC2
