:020000022000DC
:10600000000004204DA802008DA802008FA8020005
:1060100091A8020093A8020095A8020000000000C9
:10602000000000000000000000000000C9A70200FE
:1060300099A8020000000000E9A702009DA8020044
:10604000D5A902009FA802009FA802009FA80200F5
:106050009FA802009FA802009FA802009FA802001C
:106060009FA802009FA802009FA802009FA802000C
:106070009FA802009FA802009FA802009FA80200FC
:106080009FA80200A5A502009FA802009FA80200E9
:106090009FA802009FA802009FA802009FA80200DC
:1060A0009FA802009FA802009FA802009FA80200CC
:1060B0009FA802009FA8020000000000000000004E
:1060C0009FA802009FA802009FA802009FA80200AC
:1060D0009FA802009FA802009FA80200F587020067
:1060E0009FA802009FA802009FA8020000000000D5
:1060F000000000009FA80200000000009FA802000E
:10610000000000000000000000000000000000008F
:10611000000000000000000000000000000000007F
:10612000000000000000000000000000000000006F
:10613000000000000000000000000000000000005F
:10614000000000000000000000000000000000004F
:10615000000000000000000000000000000000003F
:10616000000000000000000000000000000000002F
:10617000000000000000000000000000000000001F
:10618000000000000000000000000000000000000F
:1061900000000000000000000000000000000000FF
:1061A00000000000000000000000000000000000EF
:1061B00000000000000000000000000000000000DF
:1061C00000000000000000000000000000000000CF
:1061D00000000000000000000000000000000000BF
:1061E00000000000000000000000000000000000AF
:1061F000000000000000000000000000000000009F
:10620000F1EE103A43F08073E1EE103A704700BFB0
:1062100010B5054C237833B9044B13B10448AFF3E0
:1062200000800123237010BD4862002000000000A0
:1062300050F3020008B5034B1BB103490348AFF309
:10624000008008BD000000004C62002050F30200F6
:10625000154B002B08BF134B9D46A3F5803A002138
:106260008B460F461348144A121A06F029FA0F4BB0
:10627000002B00D098470E4B002B00D098470020F1
:10628000002104000D000D48002802D00C48AFF397
:10629000008006F0B9F92000290004F02BFB06F07D
:1062A0009FF900BF0000080000000420000000006B
:1062B0000000000048620020847A002000000000F6
:1062C0000000000008B50B484FF4E13100F0B2FACD
:1062D00001210D2004F0C4FE01210D2004F000FF77
:1062E00001210E2004F0BCFEBDE8084001210E2073
:1062F00004F0F6BE70620020F8B52DED028B02F0BE
:106300000BFB4C4C4C4922680B68206013441B1A51
:1063100003D40B60BDEC028BF8BD03F5505315336D
:1063200003200B6004F0D0FD07EE900AB8EE678AF8
:1063300018EE100A06F0FCF841EC100B3F48022161
:1063400000F0C2F83E4B1A789AB93E4C217829BB2E
:106350003D4B1A78002ADDD0DFED3C7AB4EEE78AB7
:10636000F1EE10FAD6DD012529460D2025701D70AD
:106370004EE0344A117881B3334D2C78002CC9D1CA
:10638000DFED337AB4EEE78AF1EE10FAC2DD0126D2
:1063900031461C700D202C70167039E02A4E35786D
:1063A00065BBDFED2A7AB4EEE78AF1EE10FA39DC4C
:1063B000DFED287AB4EEE78AF1EE10FAAAD50121D2
:1063C0000D202570317004F08BFEBDEC028B294648
:1063D0000E20BDE8F84004F083BE1B4B1C78002C57
:1063E00098D1DFED1C7AB4EEE78AF1EE10FA91D580
:1063F000012529460D201C701570E4E7DFED167AA3
:10640000B4EEE78AF1EE10FA84D501210D20327046
:1064100004F066FEBDEC028B0121BDE8F8400E20C1
:1064200004F05EBE0127294625700D2035701F70CF
:10643000EEE700BF686200206C62002070620020FE
:106440006562002000600020646200200000C843F4
:106450000000964300007A430000AF4308B50121D5
:106460000D2004F0FDFD0D2004F058FE01210E204A
:1064700004F0F6FD0E2004F051FE01210F2004F07F
:10648000EFFD0F2004F04AFE1020012104F0E8FD8A
:10649000BDE80840102004F041BE00BFF8B5174623
:1064A00082B105460E46002402E00134A74207D01F
:1064B0002B6816F8011B1B68284698470028F4D162
:1064C0002046F8BD1446FBE72DE9F0410446C2B072
:1064D000CBB28DED000B214A214F02A84FF4807101
:1064E00006F01AFE23685D68BD42064622D10DF112
:1064F0000808002503E00135AE42236807D01B6879
:1065000018F8011B204698470028F4D123685E68DC
:10651000BE4218D11B680D212046984730B1236830
:1065200020461B680A219847B0B10235284642B080
:10653000BDE8F081024602A92046A84723685E68AC
:10654000BE420546E6D0074920460222B047054430
:10655000284642B0BDE8F0810135E7E7A0EF020030
:106560009D640200A8EF020070B592B01D460C4673
:10657000164601A84222002106F0A2F8412D5CD95E
:10658000631C0222DBB28DF806408DF80E408DF8B8
:10659000264040F6083540F202248DF81E308DF872
:1065A00027308DF83130ADF804508DF807208DF884
:1065B00012208DF833208DF83B20ADF80840204A9A
:1065C000069240F2012505232424ADF810508DF8E1
:1065D00015308DF8164004231A4C8DF81F30012514
:1065E00040F224628DF81C508DF830300894ADF8DC
:1065F0002420154D0A9508234FF411640A228DF8C2
:106600002C30ADF82E4040238DF834200F4C8DF8FF
:106610003C3001A9304640F2075540F2094642227B
:10662000ADF80C60ADF838508DF84330CDF83F40F0
:1066300006F01EF8422012B070BD002012B070BDEE
:1066400020010524240202050705800307058002B6
:1066500010B5002000F03CF9044608B1204610BDFA
:1066600004F040FB204610BD00B5002183B0084671
:106670000DF1070200F05CF920B19DF8070003B0AE
:106680005DF804FB4FF0FF30F9E700BF00B583B0C1
:1066900001220DF10701002000F024F920B19DF83E
:1066A000070003B05DF804FB4FF0FF30F9E700BFCF
:1066B000002000F059B900BF70B516466AB10D460A
:1066C0001446002000F0DEF803462946224600204A
:1066D0004BB100F03BF9241A01D1304670BD05449E
:1066E00004F000FBEDE7361B304670BD002000F0E3
:1066F00073B900BF30B50368134A5B6883B0934237
:106700008DF8071019D10DF107050124002000F0C4
:10671000B9F8034629462246002053B100F016F985
:10672000241A02D1012003B030BD054404F0DAFA86
:10673000ECE7C4F1010003B030BD01220DF1070107
:10674000984703B030BD00BFB966020070B592B083
:106750001D460C46164601A84222002105F0B0FF56
:10676000412D5CD9631C0222DBB28DF806408DF806
:106770000E408DF8264040F6083540F202248DF890
:106780001E308DF827308DF83130ADF804508DF87B
:1067900007208DF812208DF833208DF83B20ADF8BE
:1067A0000840204A069240F2012505232424ADF832
:1067B00010508DF815308DF8164004231A4C8DF8C2
:1067C0001F30012540F224628DF81C508DF83030C6
:1067D0000894ADF82420154D0A9508234FF4116450
:1067E0000A228DF82C30ADF82E4040238DF834204D
:1067F0000F4C8DF83C3001A9304640F2075540F26D
:1068000009464222ADF80C60ADF838508DF843309F
:10681000CDF83F4005F02CFF422012B070BD0020A3
:1068200012B070BD20010524240202050705800373
:1068300007058002704700BF01B1704700B583B003
:106840000846694600F034F8009BB3F5966F02D015
:1068500003B05DF804FB02F01DF8F9E7074A084BA6
:1068600010B4002002F108044FF47A7130321C6039
:10687000C3E901015DF8044B1A617047ACEF0200F7
:106880007062002010B5044600F092FB08B90020A9
:1068900010BD00F095FB0028F9D104484FF4567361
:1068A00003FB0400007900F0010010BD84620020A9
:1068B000064B4FF4567202FB003050F8063F0B6057
:1068C000838882798A718B80704700BF8462002040
:1068D000034B4FF4567202FB0030408B80B270477E
:1068E00084620020F8B54FF45674104F04FB00F496
:1068F00004F1100092B2384400F05AFA3E190546ED
:10690000F178002001F004F828B9728BB38A9B1A41
:106910009BB23F2B01D82846F8BD04F53672F178BA
:106920003A44402300F0DEFF2846F8BD8462002090
:10693000054B10B44FF4567404FB003089B25DF877
:10694000044B103000F072BA8462002010B5054B81
:106950004FF4567404FB003092B2243000F0BCFABD
:1069600010BD00BF84620020F8B5194D4FF4567376
:1069700003FB00F42E190020B17800F0C9FF08B124
:106980000020F8BD04F5467704F124002F44284484
:106990003946402200F00CFA044608B92046F8BDFA
:1069A00000F006FB0028EBD000F00AFB0028E7D13E
:1069B0003379DB07E4D5B1783A46234600F092FFFD
:1069C0000028EBD1034B1B68DA07D9D500BEF8BD10
:1069D00084620020F0ED00E0044B4FF4567202FB9D
:1069E0000030C38D008DC01A80B2704784620020D1
:1069F000F0B51B4C83B000214FF4567220460125A0
:106A00000E4605F05DFEFF234FF4424204F13801CB
:106A10006371E2802B460827009604F110004FF4C2
:106A2000807227732581668100F096F92B464FF41A
:106A3000807204F59C71009604F1240000F08CF93A
:106A400004F50E71284602F095F904F5227103460B
:106A50002846236202F08EF9606303B0F0BD00BFE8
:106A60008462002010B5074C002304F1100023605D
:106A7000237100F083FA04F12400BDE8104000F017
:106A80007DBA00BF846200204B79022B02D0002324
:106A9000184670478B79022BF9D1CB79062BF6D8A3
:106AA000F0B5334FBB7883B03BB1324B1B68DB078B
:106AB0002DD40023184603B0F0BD8B783B700C78C2
:106AC00009230C44138015466278242A064608D10F
:106AD000227813449BB22B80227814446278242AB3
:106AE000F6D0052A15D0042A02D163790A2B2DD0BD
:106AF000F978002000F00CFF03460028DAD17A8BE9
:106B0000BB8A9B1A9BB23F2B13D80123D2E700BE4E
:106B1000CFE72146304601F093F8034680B1A378D1
:106B20007B7023782A8813442B8023781C44627856
:106B3000D9E74023F978104A00F0D4FE0123B9E7E1
:106B40000C4A1268D207B4D500BEB3E70B4A2178CD
:106B5000019202230132009230461A46214400F08D
:106B60006BFE03460028EBD02B8817332B80BFE742
:106B700084620020F0ED00E05C6500208662002069
:106B800008B50B7803F06003202B09D10A4B8A88E3
:106B90001878904204D14A78202A03D0012008BDF9
:106BA000002008BD054A002AF8D0991D0020AFF347
:106BB0000080012008BD00BF8462002000000000AA
:106BC0000A7802F06002202A10D138B5134A8C8866
:106BD0001578A5420ED14C78212C09D81F2C09D943
:106BE0000632072300F0E4FE012038BD0020704784
:106BF000222C01D0002038BD4C88147100F0BEFE5C
:106C0000074B43B1C4F3400204F001010020FFF739
:106C100013FE012038BD012038BD00BF8462002072
:106C2000396802002DE9F843454EF2788A420D4654
:106C30001F4655D1A3B1434B06F5367404EB070943
:106C400006F110082BB32146404600F009F972798D
:106C5000FF2A02D0217891424ED00134A145F2D1D1
:106C6000394B2BB1738B9BB213B10020AFF3008073
:106C7000F178002000F04CFE28B9728BB38A9B1A81
:106C80009BB23F2B3CD8B3789D4211D00120BDE888
:106C9000F88321464046013400F0E2F8A145DFD0F8
:106CA00021464046013400F0DBF8A145F1D1D7E799
:106CB0002946002000F02CFE38B924494022A1F5D5
:106CC0003D7000F075F8044600BB002FDED017F0D1
:106CD0003F03DBD1B1781A46184600F003FED5E732
:106CE000B3788B42E4D01A4B186810F00100CED074
:106CF00000BE0020BDE8F8830020AFF30080ACE7C1
:106D0000144AF178402300F0EDFDBCE700F050F9A3
:106D10000028DAD000F054F90028D6D13379DB0707
:106D2000D3D50A4AB178234600F0DCFD0028ADD166
:106D3000074B1B68DA07C8D500BE002FA6D0C6E7F0
:106D40008462002000000000000000009C6500201C
:106D5000F0ED00E05C6500202DE9F041044600699B
:106D60009DF818800F4616461D46A8B14FF0FF311A
:106D700002F010FA2069276000236381A680A381B6
:106D8000E58084F80880E38118B11A46194601F0BD
:106D900041FE0120BDE8F08160812160A081A280D8
:106DA000E081E38084F808800120BDE8F08100BF25
:106DB000F8B54689B6B2002E35D0044600690D46B6
:106DC000174618B14FF0FF3102F0E4F963899BB226
:106DD000BB4236BF66893E46B6B2EEB1E2880027B6
:106DE000E38921689BB202FB0311284605F040FCB1
:106DF000E389A088E2889BB20133B3FBF0F100FB8A
:106E000011339BB2E38163890137013BB9B29BB275
:106E10008E4263811544E3D8206920B100231A46CD
:106E2000194601F0F7FD3046F8BD00BF43899BB21B
:106E30008B4201D80020704770B5C3898588C4880B
:106E4000066811FA83F1B1FBF5F305FB1311104647
:106E500004FB0161224605F00BFC012070BD00BF60
:106E600038B5438982889BB29A4204460D462BD09E
:106E7000206918B14FF0FF3102F08CF9A389E28844
:106E800020689BB202FB0300294605F0F1FBA389B1
:106E9000A1889BB20133B3FBF1F201FB12339BB229
:106EA000A38163899BB2994212D0638901339BB25B
:106EB0006381206930B100231A46194601F0AAFD0A
:106EC000012038BD012038BD007A0028D0D138BD5E
:106ED000A3899BB2E381ECE7F8B51646002A36D0C9
:106EE000044600690D4618B14FF0FF3102F052F927
:106EF000237A002B37D0E2880027A38920689BB231
:106F000002FB0300294605F0B3FBA389A1889BB2CD
:106F10000133B3FBF1F201FB12339BB2A38163890E
:106F20009BB2994215D06389E28801370133B9B227
:106F30009BB2B14263811544DFD3002E08BF012606
:106F4000206920B100231A46194601F063FD30463E
:106F5000F8BDA389E2880137B9B29BB28E42E381C2
:106F60001544CAD8E9E76289A3889B1A9BB29E425E
:106F700028BF1E46002EBED1E2E700BF10B5044672
:106F8000006978B14FF0FF3102F004F92069002365
:106F90006381A381E38118B11A46194601F03AFDD5
:106FA000012010BD6081A081E081012010BD00BFE3
:106FB000024B1878C0F38000704700BFDC650020EA
:106FC000024B1878C0F3C000704700BFDC6500209A
:106FD00030B5312283B00021174805F071FB174905
:106FE0000B46002433F8080B4A684988009401F0E6
:106FF0009FFC134B1860A8B1124C04F18C0554F897
:107000001C3B9847AC42FAD1002000F0FFFD0E4B2C
:1070100013B1002000F0F2FD002000F0F9FD012086
:1070200003B030BD094B1B6813F0010301D000BE53
:10703000F6E71846F4E700BFDC6500200460002096
:1070400010660020E0EF0200FD7B0200F0ED00E0A2
:107050002DE9F04F8BB001F0C3FB002800F0D98080
:10706000B54CDFF8E892DFF8F0B2DFF8F0A2804626
:1070700020684FF0FF3207A901F030FF002800F030
:10708000C8809DF81D30013B072B00F22683DFE806
:1070900003F09C776B615B2D0A04089B002BE7D003
:1070A00009989847E4E79DF82010A44B01F07F0071
:1070B00003EB400303EBD11393F821206FF300029D
:1070C00083F82120002800F0A7805D7C042D00F2C9
:1070D0009B809B4E099B9DF821209DF81C00C5EBD1
:1070E000C50506EB85056D69A847C1E7934E9DF878
:1070F0001C703378002043F00103337000F0BCFCB7
:107100009DF8205005F06003602B0DD0402B00F05F
:107110008B8005F01F05012D00F0E080022D00F0AE
:10712000B380002D00F09080D9F80030D90700D549
:1071300000BE9DF81C00002100F0ACFE9DF81C0074
:10714000802100F0A7FE93E7BBF1000F90D0AFF3D2
:1071500000808DE7BAF1000F8AD0784B1878C0F321
:107160000010AFF3008083E7754D05F18C06AB6925
:107170001C3513B19DF81C009847B542F7D177E74D
:10718000312200216D489DF81C706D4D05F098FA74
:107190006C4B4FF0FF321A605A609A60DA601A61E5
:1071A0005A619A61DA6100F05DFC05F18C066B684A
:1071B00038461C3503B19847AE42F8D1624B002BDC
:1071C0003FF456AFAFF3008052E7312200215B4815
:1071D0009DF81C705A4D05F073FA5A4B4FF0FF3270
:1071E0001A605A609A60DA601A615A619A61DA61CB
:1071F00000F038FC05F18C066B6838461C3503B18D
:107200009847AE42F8D133E7504B1B68DA0700D5F8
:1072100000BE0BB0BDE8F08F099B9DF821209DF8C2
:107220001C0000F03BFC23E7494B002B81D0494870
:1072300008B100F021FC384608A9AFF300800546EC
:10724000002D7FF415AF74E7002B7FF46DAF9DF830
:107250002130092B3FF668AF01A252F823F000BF9E
:10726000E97402009F740200297102008374020015
:10727000297102006974020015740200297102006C
:10728000FB730200CB7302009DF8241011F078000C
:107290007FF44AAF01F07F0206EB420202EBD1120B
:1072A000567C002B5CD19DF82130012B00F005812C
:1072B000032B75D0002B7FF437AF2B4692F821506B
:1072C00008A90DF11A02C5F340053846ADF81A5069
:1072D00000F06EFBFF2E6ED0454645E09DF8243051
:1072E0000F2B3FF626AF33445B78042B3FF621AFDC
:1072F000134EC3EBC30306EB8306306900F0BCFBFF
:10730000F36808A93846984700287FF4B1AE9DF885
:10731000203013F060067FF40CAF9DF821300A2B6B
:107320007FF407AF2B4608A938460DF11A028DF8F5
:107330001A6000F03DFB9BE610660020DC65002033
:10734000E0EF0200DD65002000000000F0ED00E04D
:10735000000000000000000000000000000000002D
:10736000FF2E3FF4E6AE0546042E3FF6DDAEB24BEF
:10737000C6EBC60603EB8606306900F07DFBF368BA
:10738000384608A99847B0B99DF8203013F0600F2F
:107390007FF456AF00F070FB002D7FF469AEC8E6B5
:1073A000BDF82230002B00F0EF8008A9384600F02D
:1073B000E5FAFF2E90D19DF8203013F0600F7FF496
:1073C00057AE002000F058FB52E633789DF822209B
:1073D0000492C3F380055B0702D4002A40F0E680E4
:1073E000049B3278003B18BF012363F382023846C6
:1073F00008A9327000F0C2FA3AE635783846C5F38B
:10740000800501230DF11A0208A98DF81A5000F029
:10741000CFFA2DE6BDF82200030A013BC0B20E2BC5
:107420003FF687AE01A252F823F000BF717502004B
:10743000537502002B750200337102003371020094
:1074400033710200337102003371020033710200A4
:107450003371020033710200337102003371020094
:10746000337102000B75020008A800F00BFB9DF8B9
:107470002210384600F0D2FB337843F00203337019
:10748000F6E5BDF82230012B7FF453AE3378384651
:1074900043F0100308A9337000F070FAE8E5BDF876
:1074A0002230012B7FF445AE337838466FF3041356
:1074B00008A9337000F062FADAE5BDF82250002D19
:1074C0007FF473AF3846009200F0F4FC009A92F813
:1074D000213065F3410382F8213092F8213065F3C1
:1074E000000382F8213060E73378DD0805F00205FB
:1074F000C3F380131D43384602230DF11A0208A975
:10750000ADF81A5000F054FAB2E54C4B002B3FF4A2
:1075100010AEAFF30080024608A95388384600F049
:1075200047FA00287FF4A4AD03E6EE283FF401AE4D
:10753000BDF8241003F044FF024600283FF4F4ADE8
:107540001378384608A900F033FA00287FF490AD8C
:10755000EFE503F02FFF024600283FF4E5AD538826
:10756000384608A900F024FA00287FF481ADE0E550
:1075700003F01CFF1223024608A9384600F018FA4F
:1075800000287FF475ADD4E53846009200F082FC07
:10759000009A92F8213043F0020382F8213092F8E9
:1075A000213043F0010382F82130FEE6501EC0B2C4
:1075B00003F000FF90B34378022B2FD13278C379C8
:1075C00022F0600203F0600313433370438800F13C
:1075D0000902C1188A42059158D2CDE90187039565
:1075E00017467A780B2A20D000230093042A13D15F
:1075F000DFF844800025039BADF81A300298D8F8D4
:1076000008300DF11A023946984708F11C08EBB210
:10761000B0B90135052DEED1DDF80480D9F8003080
:10762000D8077FF581AD00BE7EE53B7800973B44EF
:107630001F465A78DAE700BFE0EF020000000000C2
:10764000BA78B1184878FF28E6D100984B7020BB73
:10765000BDF81A50082DDFD9394600224878052890
:1076600008D191F802C00CF07F0006EB400000EB5F
:10767000DC1043740878024492B295420144EDD87C
:10768000059B2F44BB42ACD8DDE90187164B002B8C
:107690003FF4A6AEAFF30080A2E681789142BBD161
:1076A00000797A799042B7D1009A5079BA799042AC
:1076B000B2D1009A9079FA799042ADD1009AD278FD
:1076C000012AC5D9023A0231D2B2701801322946D4
:1076D000009304F0F5FF009BBAE7D9F80030DB0710
:1076E0007FF5C6AC00BEC3E40000000030B585B035
:1076F00000248D1ECDE9014403948DF804008DF81B
:107700000510032D03D8DFE805F02D0B200D234BCA
:1077100018689AB9134601A94FF0FF3201F07AF9BF
:1077200005B030BD1E4B1978C907F9D519781B482B
:107730006FF3C30100681970002AEBD0002301A980
:107740001A4601F04DFB05B030BD154B1978C8073E
:10775000E6D51978114841F0080100681970002A2F
:10776000D8D0EBE70E4B0D48197800686FF3000195
:10777000197019786FF34101197019786FF382014C
:10778000197019786FF3C3011970002AC2D0002351
:1077900001A91A4601F024FBD5E700BF10660020BE
:1077A000DC65002030B50B4685B004464968186892
:1077B0000D4D8DF8044002AC03C400230621286857
:1077C000ADF806308DF805102AB11A4601A901F06E
:1077D00007FB05B030BD134601A94FF0FF3201F0A1
:1077E00019F905B030BD00BF1066002030B585B076
:1077F000104D03929DF820402D680022CDE9012212
:107800008DF8081007218DF804008DF809308DF8E7
:10781000051034B101A92846134601F0E1FA05B07C
:1078200030BD234601A928464FF0FF3201F0F2F89F
:1078300005B030BD106600202DE9F84FDDE90A895A
:1078400042B383460C461F4616464FF0000A14E02A
:10785000E57805F00305BD4214D100F0F1F9E0B17F
:10786000A378DA0914BF89F8003088F8003023784B
:107870000AF1010AB2451C440CD06378052B21465D
:107880005846E5D0084B1B68DA0700D500BE00203B
:10789000BDE8F88F0120BDE8F88F034B1B68DB07BC
:1078A000F5D500BEBDE8F88FF0ED00E030B50C4D29
:1078B00085B000230824CDE90201019328688DF8E2
:1078C00005402AB11A4601A901F08AFA05B030BD77
:1078D000134601A94FF0FF3201F09CF805B030BD0E
:1078E0001066002010B50C4600F0E4F960B1074BBB
:1078F00004F07F0103EB410303EBD41191F8213035
:1079000043F0010381F8213010BD00BFDC65002089
:10791000054B01F07F0203EB420303EBD11191F819
:10792000210000F001007047DC65002010B50C4616
:1079300000F0B0FA094B04F07F0103EB410303EBC5
:10794000D41191F8213043F0020381F8213091F8ED
:10795000213043F0010381F8213010BDDC650020A7
:10796000054B01F07F0203EB420303EBD11191F8C9
:107970002100C0F340007047DC6500200B4630B4A6
:107980000A4C496805461868224603C293F900204C
:1079900000239A42C4E902332846A8BF802130BCA4
:1079A000B8BF19461A4600F085B900BFD46600205A
:1079B000F0B50C46284F496806462068BA603D4637
:1079C00003C50021F981E588AB4228BF2B4683B06F
:1079D000BB81A5B11BB352B397F90000402B28BF60
:1079E000402300282ADB1D4A304600F063F998B98D
:1079F0001B4B1B68DB071ED500BE03B0F0BD94F91E
:107A00000030002BACBF8021002130462B462A4697
:107A100000F050F90028EBD0012003B0F0BD97F939
:107A20000020002AACBF194680211A46DCE70C4B27
:107A30001B68D9070CD4002003B0F0BD11460748DD
:107A400001931A4604F014FE044A019B8021CBE7FF
:107A500000BE1046E1E700BFD4660020E8660020C3
:107A6000F0ED00E0034B0022C3E90022C3E902224B
:107A70001A617047D4660020014B1861704700BF3F
:107A8000D46600200346044A59680068134603C3BD
:107A90000023C2E902337047D4660020F0B53E4CA3
:107AA0002578C909B1EBD51F83B01F461AD033B171
:107AB0003A4B1B68DA075BD4002003B0F0BD384BAB
:107AC0006BB12146AFF30080012003B0F0BD014649
:107AD000304600F0DFF93046802100F0DBF901206C
:107AE00003B0F0BD94F90020002A064606DBA0682A
:107AF0000028E1D02B491A4604F0BAFDE589A168B7
:107B0000E2883D44ADB23944AA42E581A16015D076
:107B10003F2F13D9A28994F90000531B9BB2402B2D
:107B200028BF4023002825DB954231D01D4A002183
:107B3000304600F0BFF80028D1D113E0236923B10B
:107B40001549304698470028C1D094F900200023F9
:107B50009A42ACBF8021194630461A4600F0AAF876
:107B60000028BCD10D4B1B68DB07A5D500BEA4E7E0
:107B700000BEA1E7954208D01A460A48019304F0D6
:107B800077FD084A019B8021D2E780210022CFE7C0
:107B900000210A46CCE700BFD4660020F0ED00E0EB
:107BA00000000000E866002042DF704743DF7047B6
:107BB00044DF704712DF70470D4A92F8C03043B17E
:107BC0000C4B5B68C3F3080363B992F8C030002B19
:107BD000FBD1012382F8C0300360BFF36F8FBFF386
:107BE0004F8F7047014601220348FFF75FBE00BF79
:107BF0002867002000ED00E0B97B0200024B012263
:107C0000C3F80425704700BF00700240704700BFF2
:107C1000014B80225A60704700E100E0074BD3F827
:107C20000014D3F8002400200A434FF48001C3F865
:107C30000024C3F85801C3F80413704700700240D1
:107C400030B48B780D79194803F07F01DB095C00B3
:107C500001EB41021C44D20002EB84020244157283
:107C6000ABB9134A01F10C00012303FA00F0C2F88A
:107C70000403D2F8140503FA01F10143C2F8141504
:107C8000BFF36F8FBFF34F8F012030BC7047084A9E
:107C9000881C012303FA00F0C2F80403D2F810058F
:107CA00003FA01F10143C2F81015E9E72867002043
:107CB00000700240F0B501F07F040E46C90904EBE4
:107CC00044004F006B4D0F44C00000EB87002F189D
:107CD0002A500022BB80FA8083B0670034BB2BBBE4
:107CE000654BD3F88034C3F3C01399421ED095F886
:107CF000C030002B60D1614A012385F8C030136089
:107D0000BFF36F8FBFF34F8F95F8C030002B00F09B
:107D10009A80002385F8C0300023314600931A462C
:107D20001846FFF763FD012003B0F0BDA1B93B1970
:107D300005EBC302DB00527A002A4CD1002C46D05E
:107D40004D4B04F5947443F82410BFF36F8FBFF3C9
:107D50004F8F012003B0F0BD274405EBC70704EBAC
:107D60008402788A3B8A397D1B1A92009BB202F109
:107D7000804202F51C328B4228BF0B46F968C2F8DC
:107D80000016C2F8043695F8C0003D4A0B44FB606B
:107D900002EB840124B248B13A4B5B68C3F3080399
:107DA000002B5DD195F8C030002BFBD1012385F865
:107DB000C03042F82430C8E7324B5B68C3F3080395
:107DC000002B47D195F8C030002BFBD193E72A4B0D
:107DD0000122DA64B9E7284A55F803C02A4804F5B5
:107DE000947104EB840352F8216002EB8303F6B232
:107DF000C3F800C7C3F8046795F8C03000EB8401EE
:107E000022B243B11F4B5B68C3F308036BBB95F809
:107E1000C030002BFBD1012385F8C03040F8223060
:107E2000BFF36F8FBFF34F8F3C4405EBC401E400F9
:107E3000CB882A5916FA83F39BB2164401202E519F
:107E4000CB8003B0F0BD114B1B68DB077FF564AF3F
:107E500000BE61E709490E480122FFF727FD53E7FD
:107E60000B480122FFF722FD5DE709480122FFF7D9
:107E70001DFDD9E7286700200070024050700240C5
:107E80000470024000ED00E028700240F0ED00E0D8
:107E9000B97B02004A06064B0BBF012241F48071F8
:107EA0005A65C3F81815BFF36F8FBFF34F8F704734
:107EB000007002404B060AD0054B41F48072C3F8B3
:107EC0001815C3F80C25BFF36F8FBFF34F8F7047A2
:107ED000007002402DE9F04FB14BB24ED3F80003D1
:107EE000002387B01D461F46012101FA03F210420C
:107EF00009D056F8234034B1154346F82370BFF338
:107F00006F8FBFF34F8F0133192BEED1E90700F1CB
:107F10009F82AA0200F196826B020CD5A04ED6F881
:107F2000004404F44073E705C6F8003400F1BA8257
:107F3000A40500F1C2829C4B2B4043B19B4B93F8AC
:107F4000C020002A00F0A782002283F8C020290266
:107F50002BD5934BD3F88024D2B28DF81020D3F8D0
:107F60008414C9B28DF81110D3F888048DF812006A
:107F7000D3F88C048DF81300D3F890048DF8140016
:107F8000D3F894048DF81500D3F898048DF81600F2
:107F9000D3F89C348DF81730520601D1052904D04E
:107FA000012204A90020FFF7FDFBEB0416D57C4A53
:107FB0007E4CD2F80837217ADBB2002099426072F9
:107FC00040F08881E388A1889BB2994240F2828187
:107FD0000123D364BFF36F8FBFF34F8FAF0418D566
:107FE0006F4A724CD2F81C3794F82000DBB20021A3
:107FF000984284F8211040F0D081E38BA08B9BB293
:10800000984240F2CA81C2F8A414BFF36F8FBFF345
:108010004F8F6E0418D5624A644CD2F8303794F80A
:108020003800DBB20021984284F8391040F0A98171
:10803000E38EA08E9BB2984240F2A381C2F8A814AE
:10804000BFF36F8FBFF34F8F2C041AD5544A574C90
:10805000D2F8443794F85000DBB20021984284F8FB
:10806000511040F07F81B4F84E30B4F84C009BB210
:10807000984240F27781C2F8AC14BFF36F8FBFF320
:108080004F8FE8031AD5464A484CD2F8583794F82F
:108090006800DBB20021984284F8691040F05381F7
:1080A000B4F86630B4F864009BB2984240F24B8159
:1080B000C2F8B014BFF36F8FBFF34F8FA9031AD567
:1080C000374A3A4CD2F86C3794F88000DBB2002182
:1080D000984284F8811040F02781B4F87E30B4F8DB
:1080E0007C009BB2984240F21F81C2F8B414BFF3E7
:1080F0006F8FBFF34F8F6A031AD5294A2B4CD2F8E2
:10810000803794F89800DBB20021984284F89910E7
:1081100040F0FB80B4F89630B4F894009BB29842DB
:1081200040F2F380C2F8B814BFF36F8FBFF34F8FE4
:108130002B031AD51A4A1D4CD2F8943794F8B00084
:10814000DBB20021984284F8B11040F0CF80B4F83F
:10815000AE30B4F8AC009BB2984240F2C780C2F88F
:10816000BC14BFF36F8FBFF34F8F114B2B40002B0D
:1081700000F0A1800A4BD3F86C84C3F86C84BFF381
:108180006F8FBFF34F8F15F4806540F09780029595
:10819000064CDFF80CA0DFF81CB02746002613E0E1
:1081A0000070024000710240FCFB1F0028670020A5
:1081B0000004000104700240002E00F00481B9F1B7
:1081C000070F4FD0013618370123B34013EA080FC9
:1081D0005FFA86F9F0D006EB860206EB460304EB65
:1081E000C3030AEB8202D2F80406598A10FA81F11D
:1081F00089B25982B3F812C0398A1FFA8CFC8C45B7
:108200004FEA860080F0D480B3F812C03B7DA1EB2A
:108210000C0189B2D7F80CC0C2F800C6994228BF39
:1082200019460CEB0103C2F80416FB6094F8C03049
:1082300000EB0B0153B1AA4B5B68C3F30803002B9F
:1082400040F0418194F8C030002BFBD1012384F829
:10825000C03040F80B30BFF36F8FBFF34F8FB9F1D1
:10826000070FAFD19F4EDFF88092DFF88CA2DFF8C6
:1082700070B2002507E0002D00F0DF80EBB2072B85
:1082800019D00135183605F110020123934013EA85
:10829000080FF0D005EB450304EBC3033188DA88FF
:1082A00092B291424FEA450700F2918001225A7240
:1082B000EBB2072BE5D107B0BDE8F08FD3F88054BF
:1082C000D3F8803483F08003C3F3C0130293C5F363
:1082D000C0155DE7E388E288A380012100230091B7
:1082E00092B219461846FFF781FA77E6B4F8AE3035
:1082F000B4F8AE20A4F8AC3001210023009192B272
:1083000018460721FFF772FA2FE7B4F89630B4F851
:108310009620A4F8943001210023009192B21846CF
:108320000621FFF763FA03E7B4F87E30B4F87E2045
:10833000A4F87C3001210023009192B21846052157
:10834000FFF754FAD7E6B4F86630B4F86620A4F81C
:10835000643001210023009192B218460421FFF7F6
:1083600045FAABE6B4F84E30B4F84E20A4F84C30E1
:1083700001210023009192B218460321FFF736FA3B
:108380007FE6E38EE28EA38601210023009192B264
:1083900018460221FFF72AFA56E6E38BE28BA38305
:1083A0000121002392B200911846FFF71FFA30E630
:1083B0005A8A01210023009192B2184649F08001A7
:1083C000FFF714FAFBE6002D3FF4FCAE03E705F5DA
:1083D000947305EB850259F8233056F8041C09EB19
:1083E0008202DBB2C2F80017C2F8043794F8C0204A
:1083F000A8000AEB85014AB1DBF80420C2F30802A9
:10840000002A65D194F8C020002AFBD1012284F80B
:10841000C02040F80A20BFF36F8FBFF34F8F56F88C
:10842000042C2F441A4404EBC70746F8042CFA889E
:1084300013FA82F39BB2FB8020E7029B002B3FF4F0
:1084400020AF27E7012203210020FFF74FF963E562
:10845000254B264E00245C6021469C6230469C6081
:10846000C422DC62DC601C631C615C635C619C6335
:108470009C61DC63DC611C641C625C645C629C6407
:1084800004F01EF940230122204611463375337251
:10849000FFF72CF93DE5164B1B68D8077FF557AD64
:1084A00000BE54E5012204210020FFF71FF901233B
:1084B000A405C6F82C357FF53EAD0122052100202C
:1084C000FFF714F937E50B480122FFF7EFF976E6DD
:1084D000084803930122FFF7E9F9039B9FE700BFD8
:1084E00000ED00E02C6700200070024028670020AB
:1084F000F0ED00E0B97B02002870024070B5012861
:1085000082B0044647D0022803D000286FD002B0C2
:1085100070BD9A4AD2F800341805FBD54FF40063B9
:10852000C2F80034BFF36F8FBFF34F8F944B1B68BB
:10853000082B00F09D809149924A93488023C1F80E
:108540001C3501ADC1F804030026C2F884314FF098
:108550008044536028468DF80460FFF72BFB9DF89C
:1085600004308BB9D4F80C24D4F80C34D903F1D5E9
:10857000D307EFD5814B0122C3F80425BFF36F8FDA
:10858000BFF34F8F02B070BD2846FFF711FB019B70
:10859000002BEFD1DEE7794BD3F80025002AB6D0C7
:1085A0000022C3F80425BFF36F8FBFF34F8F7549C7
:1085B0008020C1F88400D3F80013C3F80813C3F86F
:1085C0000025BFF36F8FBFF34F8F01A88DF80420F4
:1085D000FFF7F0FA9DF80430002B40F0BF806B4BA2
:1085E0001C60012202210020FFF780F88FE7634B17
:1085F000D3F80025002A8AD14FF40062C3F8002482
:10860000BFF36F8FBFF34F8F5D4B1B68082B6ED08E
:108610005A4B0122C3F80025BFF36F8FBFF34F8F72
:1086200001AD002328468DF80430FFF7C3FA9DF80A
:108630000430002B40F086804FF08043D3F80C24A8
:10864000D3F80C34DE0379D4002328468DF80430A7
:10865000FFF7B0FA9DF80430002B45D14C4A136067
:10866000136801934FF08043012201991A604EE78D
:10867000484B1B68032B3FF65EAF474B1A68002A36
:1086800068D1464849F275311960026019603C4A68
:10869000404B12681B68082A7FF44DAF032B3FF64E
:1086A0004AAF3F4AD35C9BB13B4B1A68002A58D172
:1086B0003C4849F27531196002601960304A354B07
:1086C00012681B68082A7FF436AF032B3FF633AFDE
:1086D0003549364B40F2E370402208601A60BFF320
:1086E0006F8FBFF34F8F26E7FFF75EFA0FE7294B37
:1086F0001B68032B8CD82A4AD35CA3B1264B1A687B
:10870000002A36D1274949F2753203201A600860E1
:108710001A601B4A1F4B12681B68082A7FF478AF47
:10872000032B3FF675AF1C4B1A68F2B91B4949F28F
:108730007532C0201A6008601A6069E7D4073FF5F7
:10874000E6AE81E72846FFF733FA019B002B7FF462
:10875000DEAE79E7114B00221A6098E7FFF726FAA0
:108760003FE7104B00221A60A8E70C4BC0221A60AA
:108770004EE70C4B03221A60CBE700BF00700240AB
:108780003001001000E100E0051480010400004009
:10879000000100403401001000EC064014EC0640DB
:1087A0006CF0020014ED06400078024004780240AC
:1087B00038B5094D2C780CB1204638BDFEF708FCC1
:1087C00018B101232B70204638BD044B1B68DB0712
:1087D000F2D500BEF0E700BFEC670020F0ED00E04E
:1087E000014B1878704700BFEC67002008B5FEF712
:1087F0002FFCFCE70020FFF76DBB00BF30B51F4921
:108800001F4885B002F082FD45F2665248F287713A
:108810001B4802F0C5FD1A4802F0C6FD002502A85B
:108820008DF8085002F096F8164B039303A802F057
:10883000BDF802F0C7F8144A40214FF0804382F897
:108840002713D3F83844E2070ED4A30711D4FFF757
:10885000AFFF00230322CDE900230C490C48C822B6
:1088600000F08EFF05B030BD2846FFF747FEA30796
:10887000EDD50220FFF742FEE9E700BF806200204D
:10888000E8710020FD84020000E100E070F00200C9
:10889000ED87020002F010BB30B54FF0805387B077
:1088A0000C465A6E1B491B6E01A804F069FC9DF82A
:1088B00004309DF805509DF806009DF807109DF8BE
:1088C000082023809DF809306580A0809DF80A501B
:1088D0009DF80B00E18022819DF80C109DF80D2081
:1088E00063819DF80E30A581E0819DF80F509DF8C1
:1088F0001000218262829DF811109DF81220A3823F
:108900009DF8133020831020E5826183A283E383E6
:1089100007B030BD78F0020008B501F017F8034B3E
:10892000A0FB0323900A40EA835008BD40420F0099
:1089300038B51C469DF8105043B3002908BF1A46AD
:108940000123C4E90F01226084F8463001F016FECD
:10895000D4E90F132268A26001FB03F1CB1A134480
:1089600000200A44FF21A063E36084F844106260A1
:1089700084F8451004F1100003F00AFC04F124000F
:1089800003F006FC01F004FE84F84C50204638BD8C
:10899000F8B5064617460D4669B100FB01F05030A8
:1089A00003F042FC044690B3002200F1500380F82B
:1089B0004620036007E0502003F036FC044630B345
:1089C00084F846502460C4E90F6501F0D7FDD4E96E
:1089D0000F132268A26001FB03F1CB1A134400209D
:1089E0000A44FF21A063E36084F84410626084F8C5
:1089F000451004F1100003F0CBFB04F1240003F058
:108A0000C7FB01F0C5FD84F84C702046F8BD00247A
:108A10002046F8BD2DE9F047044684B01F46019278
:108A2000884600F1240601F0A9FDA26BE36BDFF894
:108A300040939A424FF0000A7CD3022F00F0E88066
:108A4000019D002D00F0128102ADBAF1000F00F07F
:108A5000DB8001F09DFD00F071FF01F08FFD94F8C7
:108A60004430FF2B04BF002384F8443094F8453091
:108A7000FF2B04BF002384F8453001F089FD284610
:108A800001A901F05FFA002840F0F68001F076FDC0
:108A9000A26BE36B9A4261D001F07AFD01F06EFDAA
:108AA00094F845506DB2002D05DC12E06B1E13F0FA
:108AB000FF0F5DB20DD0636A304653B101F0E4F9A7
:108AC0000028F3D001F072FA6B1E13F0FF0F5DB2B5
:108AD000F1D1FF2384F8453001F05AFD01F04EFD3D
:108AE00094F844506DB2002D15DD04F1100A04E035
:108AF0006B1E13F0FF0F5DB20DD02369504653B1CA
:108B000001F0C2F90028F3D001F050FA6B1E13F007
:108B1000FF0F5DB2F1D1FF2384F8443001F038FD3E
:108B200000F0BCFF01F02AFDA26BE36B9A424FF00C
:108B3000010A82D2226CA56B002A40F0E7802668E9
:108B4000002E00F0F9800135A563636A002B7CD10B
:108B500001F01EFD012004B0BDE8F08704F1100A09
:108B600001F016FD0199504601F012F901F006FDE1
:108B700094F845506DB2002D05DC12E06B1E13F029
:108B8000FF0F5DB20DD0636A304653B101F07CF93E
:108B90000028F3D001F00AFA6B1E13F0FF0F5DB24C
:108BA000F1D1FF2384F8453001F0F2FC01F0E6FC3E
:108BB00094F844506DB2002D05DC12E06B1E13F0EA
:108BC000FF0F5DB20DD02369504653B101F05CF93F
:108BD0000028F3D001F0EAF96B1E13F0FF0F5DB22D
:108BE000F1D1FF2384F8443001F0D2FC00F056FFAD
:108BF000002897D14FF08053C9F8043040BFBFF32D
:108C00004F8FBFF36F8F8DE7284601F08FF920E774
:108C1000226CA56B002A92D04146E06803F028FD43
:108C2000226CE36821689B1A8B42E360C2F1000268
:108C300004D263681A44E260022F84D1002D83D1EC
:108C40000123A363636A002B82D004F1240001F0A6
:108C50001BF900283FF47CAF454B4FF080525A601F
:108C600040BFBFF34F8FBFF36F8F71E701F090FCF0
:108C7000284604B0BDE8F08701F080FC94F8455028
:108C80006DB2002D15DD04F1240604E06B1E13F017
:108C9000FF0F5DB20DD0636A304653B101F0F4F8B6
:108CA0000028F3D001F082F96B1E13F0FF0F5DB2C4
:108CB000F1D1FF2384F8453001F06AFC01F05EFC3D
:108CC00094F844506DB2002D15DD04F1100604E057
:108CD0006B1E13F0FF0F5DB20DD02369304653B108
:108CE00001F0D2F80028F3D001F060F96B1E13F008
:108CF000FF0F5DB2F1D1FF2384F8443001F048FC4E
:108D000000F0CCFE002004B0BDE8F087414607BB70
:108D1000A06803F0ADFCA368216C62680B44934229
:108D2000A360FFF410AF0135A563636A2268A260F7
:108D3000002B3FF40DAF88E76068013501F0AEF914
:108D4000A563636A6660002B7FF47FAF002883D140
:108D5000FEE6E06803F08CFC226CE36821689B1A55
:108D60008B42E360C2F10002BFF466AF61E700BF6F
:108D700000ED00E0F8B50C4679B300250123216031
:108D8000C1E90F3581F84630064601F0F7FBD4E91A
:108D90000F322168A56303FB02F39A1A0A440B44BD
:108DA000FF27C4E90131E26084F8447004F1100047
:108DB00084F8457003F0ECF904F1240003F0E8F9BD
:108DC00001F0E6FBC4E90055E56084F84C602B46F1
:108DD0002A4629462046FFF71DFE2046F8BD00BF63
:108DE0002DE9F043044683B016469946EFF3118807
:108DF000402282F31188806BE26B90421ED3022BDB
:108E000005D0002088F3118803B0BDE8F08394F802
:108E10004550226CA76B6DB232BB2368002B47D044
:108E200001376B1CA76335D001356DB284F845500E
:108E3000012088F3118803B0BDE8F08394F8455011
:108E4000226CA76B6DB2002AE7D0002B38D1A06846
:108E500003F00EFCA368216C62680B449342A3608C
:108E600024BF2368A360DBE7E06803F001FC226C09
:108E7000E0682168801A8842E060C2F1000205D2F1
:108E800061680A44E260B9F1020FC9D1012F38BF0D
:108E90000127C6E7636A002BCAD004F1240000F062
:108EA000F3FF0028C4D0002EC2D001203060A9E713
:108EB0006068019301F0F2F8019B63600137B0E74D
:108EC000E06803F0D5FB226CE0682168801A8842D4
:108ED000E060C2F10002D6D2D2E700BF2DE9F04334
:108EE000044685B00F46019201F048FBA56B002DAA
:108EF00040F02781019B002B00F0D28002A801F0F6
:108F000015F8DFF88C8204F1240601F041FB00F033
:108F100015FD01F033FB94F84430FF2B04BF002310
:108F200084F8443094F84530FF2B04BF002384F8C4
:108F3000453001F02DFB01A902A801F003F800283B
:108F40005BD101F01BFBA36B002B40F0AF8001F065
:108F50001FFB0199304600F01BFF01F00FFB94F856
:108F600045506DB2002D05DC12E06B1E13F0FF0FB3
:108F70005DB20DD0636A304653B100F085FF002822
:108F8000F3D001F013F86B1E13F0FF0F5DB2F1D1B7
:108F9000FF2384F8453001F0FBFA01F0EFFA94F872
:108FA00044506DB2002D15DD04F1100904E06B1E74
:108FB00013F0FF0F5DB20DD02369484653B100F0A6
:108FC00063FF0028F3D000F0F1FF6B1E13F0FF0FDA
:108FD0005DB2F1D1FF2384F8443001F0D9FA00F0FA
:108FE0005DFD002853D14FF08053C8F8043040BFD6
:108FF000BFF34F8FBFF36F8F49E001F0BFFA94F8D2
:1090000045506DB2002D05DC12E06B1E13F0FF0F12
:109010005DB20DD0636A304653B100F035FF0028D1
:10902000F3D000F0C3FF6B1E13F0FF0F5DB2F1D160
:10903000FF2384F8453001F0ABFA01F09FFA94F871
:1090400044506DB2002D15DD04F1100904E06B1ED3
:1090500013F0FF0F5DB20DD02369484653B100F005
:1090600013FF0028F3D000F0A1FF6B1E13F0FF0FD9
:109070005DB2F1D1FF2384F8443001F089FA00F0A9
:109080000DFD01F07BFAA36B53B101F081FA01F001
:1090900075FAA56B002D54D1019B002B7FF435AFE1
:1090A00001F076FA002005B0BDE8F08301F070FA17
:1090B00001F064FA94F845506DB2002D05DC12E021
:1090C0006B1E13F0FF0F5DB20DD0636A304653B1D3
:1090D00000F0DAFE0028F3D000F068FF6B1E13F0FA
:1090E000FF0F5DB2F1D1FF2384F8453001F050FA53
:1090F00001F044FA94F844506DB2002D15DD04F1EE
:10910000100904E06B1E13F0FF0F5DB20DD0236950
:10911000484653B100F0B8FE0028F3D000F046FFF7
:109120006B1E13F0FF0F5DB2F1D1FF2384F84430C2
:1091300001F02EFA00F0B2FC01F020FAA56B002D30
:10914000AAD0226C52B1E168636811449942E1608F
:1091500024BF2168E160384603F08AFA013DA56327
:1091600023692BB901F014FA012005B0BDE8F083A2
:1091700004F1100000F088FE0028F3D0044B4FF0FB
:1091800080525A6040BFBFF34F8FBFF36F8FE9E744
:1091900000ED00E02DE9F043044685B000F124061F
:1091A000019101F0EBF9A36BDFF8DC820027B946EF
:1091B000002B40F0D780019D002D00F0418102ADD1
:1091C000B9F1000F00F0DE8001F0E2F900F0B6FB2B
:1091D00001F0D4F994F84430FF2B04BF002384F845
:1091E000443094F84530FF2B04BF002384F8453009
:1091F00001F0CEF9284601A900F0A4FE00285FD1B5
:1092000001F0BCF9A36B002B40F0C88001F0C0F95D
:109210002368002B00F01B810199304600F0B8FD57
:1092200001F0ACF994F845506DB2002D05DC12E068
:109230006B1E13F0FF0F5DB20DD0636A304653B161
:1092400000F022FE0028F3D000F0B0FE6B1E13F0F9
:10925000FF0F5DB2F1D1FF2384F8453001F098F99A
:1092600001F08CF994F844506DB2002D15DD04F135
:10927000100904E06B1E13F0FF0F5DB20DD02369DF
:10928000484653B100F000FE0028F3D000F08EFEF7
:109290006B1E13F0FF0F5DB2F1D1FF2384F8443051
:1092A00001F076F900F0FAFB002853D14FF080531B
:1092B000C8F8043040BFBFF34F8FBFF36F8F49E052
:1092C00001F05CF994F845506DB2002D05DC12E018
:1092D0006B1E13F0FF0F5DB20DD0636A304653B1C1
:1092E00000F0D2FD0028F3D000F060FE6B1E13F0FA
:1092F000FF0F5DB2F1D1FF2384F8453001F048F94A
:1093000001F03CF994F844506DB2002D15DD04F1E4
:10931000100904E06B1E13F0FF0F5DB20DD023693E
:10932000484653B100F0B0FD0028F3D000F03EFEF7
:109330006B1E13F0FF0F5DB2F1D1FF2384F84430B0
:1093400001F026F900F0AAFB01F018F9A36BEBB1CC
:1093500001F01EF901F012F9A36B4FF00109002B87
:109360003FF429AF2268013BA363002A00F0888004
:109370002369002B74D101F00BF90127384605B0A1
:10938000BDE8F083284600F0D1FD1DE701F000F9AB
:10939000002F4AD1384605B0BDE8F08301F0F8F857
:1093A00001F0ECF894F845506DB2002D05DC12E0A8
:1093B0006B1E13F0FF0F5DB20DD0636A304653B1E0
:1093C00000F062FD0028F3D000F0F0FD6B1E13F0FA
:1093D000FF0F5DB2F1D1FF2384F8453001F0D8F8DA
:1093E00001F0CCF894F844506DB2002D15DD04F175
:1093F000100904E06B1E13F0FF0F5DB20DD023695E
:10940000484653B100F040FD0028F3D000F0CEFDF7
:109410006B1E13F0FF0F5DB2F1D1FF2384F84430CF
:1094200001F0B6F800F03AFB94E701F0A7F8616AA2
:1094300019B1236B1968C1F10501606800F05EFE87
:1094400001F0A6F80027384605B0BDE8F08301F02A
:1094500095F8606800F0DCFD074601F099F8DBE65E
:1094600004F1100000F010FD002884D0064B4FF0EE
:1094700080525A6040BFBFF34F8FBFF36F8F7AE7C0
:1094800000F076FE606073E700ED00E0074B1A68BD
:109490001AB19A6802B17047012210B403EBC204FA
:1094A00043F8321060605DF8044B7047FC77002091
:1094B00070B504460E46154601F060F894F8443045
:1094C000FF2B04BF002384F8443094F84530FF2B71
:1094D00004BF002384F8453001F05AF8A36B002B39
:1094E00045D001F04BF894F845506DB2002D15DDD4
:1094F00004F1240604E06B1E13F0FF0F5DB20DD0E3
:10950000636A304653B100F0BFFC0028F3D000F08E
:109510004DFD6B1E13F0FF0F5DB2F1D1FF2384F8F8
:10952000453001F035F801F029F894F844506DB257
:10953000002D15DD04F1100604E06B1E13F0FF0F83
:109540005DB20DD02369304653B100F09DFC002878
:10955000F3D000F02BFD6B1E13F0FF0F5DB2F1D1C5
:10956000FF2384F84430BDE8704001F011B82A466A
:10957000314604F1240000F047FCB2E72DE9F04148
:10958000044600F0FBFF344A344D13680133136086
:109590002B68002B30D0324E336833B3E36A314846
:1095A000314907680A689F4238BF03602F4801327B
:1095B00003EB83030A6000EB8300E263211D02F0EA
:1095C000F7FD00F0E5FF33686BB12A68E36AD26A01
:1095D0009A4208D2264B4FF080525A6040BFBFF3E8
:1095E0004F8FBFF36F8FBDE8F0812A68E36AD26ABC
:1095F0009A4298BF2C60D2E72C601368012B02D0EE
:10960000E36A174ECBE71948DFF89080194F144EE4
:1096100002F0BEFD184802F0BBFD184802F0B8FD8C
:10962000174802F0B5FD174802F0B2FD404602F0BF
:10963000AFFD384602F0ACFD134802F0A9FD134817
:1096400002F0A6FD124802F0A3FD124B124AC2F826
:1096500000801F60E36AA2E760680020F0670020D6
:10966000C06800207468002070680020FC6700203B
:1096700000ED00E08C6800201068002024680020C5
:10968000386800204C680020AC680020D8680020B2
:10969000C4680020F8670020F46700207868002084
:1096A0002DE9F843DDE909C4002C66D0BCF1000FB8
:1096B00060D00D46960098460223324684F8513019
:1096C000A5210746C4F830C0604602F0F9FF2A78A9
:1096D00084F83420236B2978321F1A4422F00706BD
:1096E00001B36B7884F835306B78DBB1AB7884F8F4
:1096F0003630AB78B3B1EB7884F83730EB788BB198
:109700002B7984F838302B7963B16B7984F8393050
:109710006B793BB1AB7984F83A30AB7913B1EB7923
:1097200084F83B30089D042D28BF04254FF0000924
:10973000E5626564201D84F83B90C4F8489002F00F
:1097400033FDC5F1050504F1180002F02DFDC4F844
:109750004C9042463946A561246184F85090646279
:10976000304600F0CFFE20602046FFF707FF20467E
:10977000BDE8F8836046BDE8F8832046BDE8F8837D
:109780002DE9F0479600804630460D46994602F096
:109790004BFD002862D00746542002F045FD0446E8
:1097A00000285FD000230763324684F851303846E2
:1097B000A52102F085FF2B7884F834302B78D4F87B
:1097C00030A003B36B7884F835306B78DBB1AB78BD
:1097D00084F83630AB78B3B1EB7884F83730EB7877
:1097E0008BB12B7984F838302B7963B16B7984F89D
:1097F00039306B793BB1AB7984F83A30AB7913B13E
:10980000EB7984F83B30089D042D28BF0425002700
:10981000E5626564201D84F83B70A764043E02F095
:10982000C3FCC5F1050504F11800564402F0BCFC68
:10983000E764A56126F0070084F850702461646233
:109840004A46414600F05EFE099B206003B11C6061
:109850002046FFF793FE0120BDE8F0874FF0FF3070
:10986000BDE8F087384602F0F1FC4FF0FF30F3E737
:1098700070B584B0002503AA02A901A8CDE901555D
:1098800001F044FA019C002C46D00298002843D0F5
:10989000039E20630223B6003246A52184F851308E
:1098A00002F00EFF206B1F4B6363043E0644C4E9C5
:1098B0001155201D84F8385084F83B50E56202F0C1
:1098C00073FC04F1180002F06FFC26F00706052374
:1098D0001549A3612A46E56430462461646284F830
:1098E000505000F00FFE20602046FFF747FE0F4B60
:1098F0001C6000F0ADFD012811D1402383F31188D5
:109900000B490C4A0C4B4FF0FF340C6010601D608B
:1099100000F00EFE04B070BD044B00221A6004B0CB
:1099200070BD00BF49444C45BD9B0200A0680020AB
:10993000A4680020C0680020EC680020024A136878
:1099400001331360704700BF6C680020014B18683A
:10995000704700BFEC680020024A1368184410608A
:10996000704700BFEC6800202DE9F04F404B1B68AA
:1099700083B0002B46D13F4B1E6801361E60002E7F
:109980004ED0DFF808B1DBF80030B3425FD83A4F71
:109990003B681D68002D65D0DFF8F480DFF8F4A087
:1099A000DFF8F490002522E0019102F029FCA36A7F
:1099B000019904F1180013B102F022FC0199E36A45
:1099C000D8F8002003EB830093420AEB800088BFA5
:1099D000C8F8003002F0ECFBD9F800203B68E16ADF
:1099E000D26A1B68914228BF0125002B3AD03B6800
:1099F000DB68DC686368211D9E420846D4D2CBF840
:109A0000003004E01D4A13680133136000251C4B2D
:109A10001B68002B0CBF2846012003B0BDE8F08F67
:109A2000154B184A1868184914681C6010600A68B9
:109A300001320A601A6812685AB9DFF850B04FF064
:109A4000FF33CBF80030DBF80030B3429FD900255C
:109A5000DDE71B68DFF834B0DB68DB685B68CBF8F8
:109A6000003090E74FF0FF33CBF80030CFE700BF76
:109A70006C680020EC680020F46700206868002013
:109A8000F0680020F8670020A8680020A468002083
:109A900074680020FC670020F06700202DE9F04F7B
:109AA00083B000F06BFD3A4B1A68013A1A601B68EC
:109AB000002B55D1374B1B68002B51D0364D2B68EE
:109AC000002B62D0354EDFF8EC80354FDFF8E890A0
:109AD0004FF0010AEB68DC6804F1040B04F1180094
:109AE00002F08EFB584602F08BFBE36A326803EB10
:109AF00083009342594608EB800088BF336002F030
:109B000057FB3B68E26ADB6A9A4231D3C9F800A08E
:109B10002B68002BDED1234B1A681268002A2FD045
:109B20001A68214BD268D26852681A601F4E346896
:109B300044B10125FFF718FF08B1C9F80050013CF6
:109B4000F8D13460D9F8003053B1194B4FF080523E
:109B50005A6040BFBFF34F8FBFF36F8F012000E00B
:109B60000020019000F014FD019803B0BDE8F08FD3
:109B70002B68002BAED10B4B1A681268002ACFD18C
:109B8000094B4FF0FF321A60D0E7DFF82C90CDE799
:109B90006C68002060680020AC68002074680020B9
:109BA000F0670020F4670020A468002068680020A7
:109BB00000ED00E0FC670020F06800202DE9F84F80
:109BC0003A4CDFF804913A4D3A4EDFF800813A4FB3
:109BD000DFF8FCB02368EBB100F0D0FCD9F80C3012
:109BE000D3F80CA00AF1040002F00AFB2B68013B39
:109BF0002B602368013B236000F0CAFC9AF85130C7
:109C0000002B34D0012BE5D1504602F01FFB236816
:109C1000002BE1D13368012B08D94FF08053CBF8EA
:109C2000043040BFBFF34F8FBFF36F8F00F00CFEC7
:109C3000D8F800301BBB3B68DB6A002BCAD1336805
:109C4000012BC7D81D4B1E4A1B6812689B1A012B9B
:109C5000C0D91C4A136801331360D8F80030A3B18F
:109C60003B68DB6A03B93368FFF718FFB2E7DAF83D
:109C7000300002F0EBFA504602F0E8FAAAE73B683F
:109C8000DB6A002BA6D13368A4E73B68DB6A002BB4
:109C9000EAD13368012BE7D8084B1868084B1B68DA
:109CA000C01A0128E0D900F0DFFCDDE7646800207D
:109CB00060680020FC670020F0670020A468002096
:109CC000EC6800206C680020D868002074680020D0
:109CD00000ED00E0294B1B681BB1294B01221A60E3
:109CE0007047274A70B5274C1360226823681268B2
:109CF0001B6B9A423CD9244D244B2A6802EB82000C
:109D000080009100185808BB501E00EB8006B6007A
:109D100081009E5956BB901E00EB8006B600810064
:109D20009E591EBBD01E00EB8006B60081009E59D6
:109D3000E6B9101F00EB8006B60081009E59AEB94F
:109D4000053A02EB8200800091001858114403EBA1
:109D5000810003464168496841600833994204BF65
:109D600049684160CB6823602A6070BD0246EDE718
:109D700020682168343100F0C5FFBCE76C68002022
:109D8000F0680020F067002074680020FC67002065
:109D900070B5174D2B680C4603F1180102F018FA44
:109DA000144B1E682868043002F02AFA631C17D08E
:109DB0002B68A4195C6007D30F4B18682968BDE8AD
:109DC0007040043102F004BA0C4B18682968043161
:109DD00002F0FEF90A4B1A68944238BF1C6070BD4D
:109DE00029680848BDE87040043102F0E1B900BFBD
:109DF000F0670020EC680020F8670020F46700207E
:109E0000A4680020C468002070B5194D2B68164660
:109E10000C4603F1180102F0CBF9164B5EB11B683A
:109E20002868043002F0ECF929681348BDE8704056
:109E3000043102F0BDB91E682868043002F0E0F970
:109E40002B68A4195C6007D30C4B18682968BDE81F
:109E50007040043102F0BCB9094B1868296804311C
:109E600002F0B6F9074B1A68944238BF1C6070BD07
:109E7000F0670020EC680020C4680020F86700202C
:109E8000F4670020A468002030B5C368DC6804F1E2
:109E9000180583B0284602F0B3F91C4B1B683BBB86
:109EA000211D0846019102F0ABF9194AE36A1068D6
:109EB00001998342174888BF136003EB830300EBCB
:109EC000830002F075F9144BE26A1B68DB6A9A4260
:109ED00082BF124B01201860114B1A68126898BF9C
:109EE000002052B90F4B4FF0FF321A6003B030BD63
:109EF0000D48294602F05CF9E5E71A68094BD2687B
:109F0000D26852681A6003B030BD00BF6C68002090
:109F100074680020FC670020F0670020F0680020D3
:109F2000F4670020A4680020AC680020034A044BBA
:109F300012681B68C0E90023704700BFA8680020B2
:109F4000EC680020F0B50D4683B0044600F016FB27
:109F50002B68144A591C10681DD0DFF84CC0D4E996
:109F60000061DCF80070BE4208D0814206D80120B2
:109F7000019000F00DFB019803B0F0BD471ABB4201
:109F80000BD91B1A0B44DCF8001012682B60002060
:109F9000C4E90012ECE70020EAE700232B6001206F
:109FA000E6E700BFEC680020A8680020014B012212
:109FB0001A607047F0680020094B186818B9094BFF
:109FC0001B6813B1704700207047074A074B1068A1
:109FD0001B68013B984214BF01200220704700BF5C
:109FE000AC680020F0680020C46800206068002091
:109FF000054B1B6833B1054B1B68002B0CBF0220BF
:10A000000020704701207047C06800206C68002065
:10A0100070B5044682B0C8B11D4DC36A2A68D26AC1
:10A02000934215D28269002A04DB2A68D26AC2F1FF
:10A0300005028261174E626903EB830306EB83031B
:10A040009A420ED02B68DB6AE362012002B070BD39
:10A050002B68406CDC6AA0422CBF0020012002B0BB
:10A0600070BD211D0846019102F0CAF82A680A4B0A
:10A07000D06A1A680199E062904200D9186000EB3A
:10A08000800006EB800002F093F80120DEE700BFBD
:10A09000F0670020FC6700207468002068B130B5CC
:10A0A000836CC16A426C013B914283B00446836475
:10A0B00000D023B1002003B030BD00207047011D47
:10A0C0000846019102F09CF80A4A636C1068E3624A
:10A0D0008342094888BF1360C3F1050503EB83037E
:10A0E00000EB83000199A56102F062F8012003B042
:10A0F00030BD00BF74680020FC67002070B130B52F
:10A10000426CC36A914238BF11468B4283B0044609
:10A1100002D0826C012A02D003B030BD7047826940
:10A12000114DC162002A03EB83034269A8BFC1F14C
:10A13000050105EB8303A8BF81619A42ECD1011DA3
:10A140000846019102F05CF8084BE06A1A68019930
:10A15000904288BF186000EB800005EB800003B0E0
:10A16000BDE8304002F024B8FC670020746800208D
:10A17000044B1A681AB119688A6C01328A6418682B
:10A18000704700BFF06700202DE9F0431D4EDFF857
:10A190007C9085B04FF000080CE0DB68DC681F683D
:10A1A000251D284602F02CF8636A20469847E3698B
:10A1B000012B0AD033681A68002AEED1124A1168BE
:10A1C0003160136005B0BDE8F083A3693B449F4252
:10A1D000294610D3D9F80030002BEBD0CDE9008709
:10A1E0000294FFF705FF0023D9F800001A466946DC
:10A1F000FEF710FCDEE730686360246101F0E8FFE1
:10A20000D8E700BFF4680020F8680020786B0020D1
:10A210002DE9F04F894E8A4CDFF82C82894DDFF80A
:10A220002CA28BB03368D3F800B0BBF1000F00F064
:10A23000A980DB68D3F800B0FFF780FBFFF786FB4F
:10A2400022688242814600F2AE808345206040F25F
:10A25000BF8000222868ABEB0901FFF729F9FFF75F
:10A260001DFC40B94FF08053CAF8043040BFBFF323
:10A270004F8FBFF36F8F2868002202A9FEF72EFED2
:10A280000028CFD0029B002B73DBDDF81090D9F8AB
:10A2900014301BB109F1040001F0B2FFFFF756FBC7
:10A2A000236898420746C0F08580029B2760092BEF
:10A2B000E1D801A252F823F0E1A20200E1A20200DB
:10A2C000E1A2020077A202003BA3020063A3020006
:10A2D000E1A20200E1A2020077A202003BA3020079
:10A2E0000398D9F81830C9F81090C2182CBF012172
:10A2F0000021BA42C9F804205FD8381A834228D80E
:10A30000D9F8243048469847D9F81C302868012BE2
:10A31000B2D10028B0D0D9F81820039B00211344F3
:10A32000CDE907390691FFF763FE002328681A4636
:10A3300006A9FEF76FFB28689EE7039BC9F81090FB
:10A34000DA19BA42C9F81830C9F8042039D8002BF4
:10A3500091D0D8F8000009F1040101F039FF286814
:10A360008AE799F82C30002B85D1484601F06EFF22
:10A3700081E7039BDDE904019847029B002BFFF670
:10A380007AAF82E7FFF7DAFAFFF7E0FA2268904245
:10A39000814608D3D8F80020C4F800901268B2FAB9
:10A3A00082F2520956E7FFF7EFFEC4F80090FFF77C
:10A3B00075FB60E7FFF7E8FE77E7B84201D90029AF
:10A3C0009ED0306809F1040101F002FF286853E7CC
:10A3D000FFF764FB3268D268D768391D08460191DF
:10A3E00001F00EFFF8690199012803D07B6A384615
:10A3F000984740E7BA693F610BEB02004845786037
:10A4000003D9306801F0E4FEF0E7A9EB0B039A42B0
:10A410000FD82B68002BE9D00023CDE9063B089725
:10A42000FFF7E6FD002328681A4606A9FEF7F2FAB0
:10A43000DCE7D8F8000001F0CBFED7E7F468002095
:10A44000246B0020786B0020F868002000ED00E00D
:10A45000F0B51F4C89B000F091F82568F5B100F017
:10A4600097F82068C0B1002407AA06A905A8CDE97D
:10A47000054400F059FCDDE905310222CDE9002157
:10A480000293079A134914482346FFF709F9134B1F
:10A490001860001B18BF012009B0F0BD104F114E0D
:10A4A000384601F075FE304601F072FE0E4A0F4943
:10A4B00000950F4B17600E600E4A10212020FEF70A
:10A4C00037FA20600028CAD00B49FEF7DFFFC6E745
:10A4D000786B00208CF0020011A202007C6B00203F
:10A4E000FC6A0020106B0020F4680020F86800204F
:10A4F000286B0020FC68002084F00200402383F3D6
:10A500001188FEE730B46FF00203084C40F80C4CA1
:10A510004FF0807540F8045C40F8081C40F8202C8F
:10A5200040F8243C30BC4438704700BFFDA4020012
:10A530000F4C08B5E02384F8223000F077F80D4B7B
:10A540000D4A00211960D4F8883043F47003C4F830
:10A550008830536843F040435360236943F010034D
:10A56000236100F01FF9402383F31188FEE700BF49
:10A5700000ED00E0806B002030EF00E0402383F32B
:10A580001188024A1368013313607047806B002002
:10A59000034A1368013B13600BB983F311887047BA
:10A5A000806B002070B51D4B00221A6082B01B68C2
:10A5B0000193019BEFF31186402383F3118818491F
:10A5C000184BD1F804451A601B680093009BFFF7F5
:10A5D000BDF9201A20F07F4323F0010320F07F45CE
:10A5E0009BB96C1E6DB10025FFF7BEF9013C631CE1
:10A5F00045EA0005F8D125B10B4B4FF080525A6067
:10A6000040BF86F3118802B070BDFFF7F1FC02284D
:10A61000E7D0FFF7A9F90546EDE700BF401101407B
:10A62000001001400011014000ED00E030B40B4B80
:10A630000B480C491F24C3F8084501220225E024D9
:10A64000C3F8042302601A604FF40030C3F8445387
:10A6500081F8114330BC0860704700BF0010014012
:10A660000810014000E100E0F0B5054685B0EFF3C9
:10A67000108272B6444CA36883B9444B444801210C
:10A68000A160D3F8801001402160C3F88000D3F8A6
:10A69000841061604FF0FF31C3F8841002B962B6D4
:10A6A0003C4ED6F80475FFF787FC002846D03A48A0
:10A6B0003A4BA84228BF28463A1822F07F4201218F
:10A6C0004FF0000CC6F80813C6F84025C3F800C0C8
:10A6D0001A6801924FF48032DDF804C0C6F80423F2
:10A6E000BFF34F8F002D39D0284B20BFD3F8001176
:10A6F000D3F804210A43F8D0264A284E28494FF4BB
:10A700008035C2F808530025356036680396039EED
:10A710000D60096802910121029DC2F80413D2F86C
:10A720000425D21B22F07F42904228BF10464FF4EE
:10A730000032C3F8802108B1FFF70EF9A3685BB1BE
:10A74000EFF3108272B6114B21681960616859608D
:10A750000023A36002B962B605B0F0BDC6F80823B5
:10A760001D601A680E4B0392039A1D601B680293CA
:10A77000064B029AC6F804134FF40032D6F80415BB
:10A78000C3F88021DAE700BF1078002000E100E084
:10A79000FC06FFBD00100140FDFFFF00401101401D
:10A7A000001101400748006880F3088862B661B66E
:10A7B000BFF34F8FBFF36F8F4FF0E00080F311882E
:10A7C00000DF00BF00600200064B19680868B0E8AF
:10A7D000F04F80F30988BFF36F8F4FF0000080F3D4
:10A7E00011887047F0670020EFF30980BFF36F8F87
:10A7F000144B1A681EF0100F08BF20ED108A20E9D4
:10A80000F04F10604DF8043D4FF0400080F3118888
:10A81000BFF34F8FBFF36F8FFFF75CFA4FF000006D
:10A8200080F3118808BC19680868B0E8F04F1EF082
:10A83000100F08BFB0EC108A80F30988BFF36F8F48
:10A84000704700BFF0670020704700BF0A490B4AFD
:10A850000B4B9B1A03DD043BC858D050FBDC094866
:10A8600009494FF0AD32026004300439FBD100F0E9
:10A8700027F9FBF7EDFC00005CF30200006000200C
:10A880004862002000F8032000080000FEE7FEE711
:10A89000FEE7FEE7FEE7FEE7FEE7FEE7FEE7FEE790
:10A8A00008B5FBF70FFD114BBBB1114B63B1FBF7C3
:10A8B00023FD00F017FAAFF30080FBF71DFD00F059
:10A8C00011FAAFF30080F2E7FBF716FD00F00AFA89
:10A8D000FBF712FD00F006FAF6E7FBF70DFD00F0BE
:10A8E00001FAFBF709FD00F0FDF9F6E700000000B2
:10A8F0000000000000B583B000F0AEFAFBF7AEFD3B
:10A90000FDF77CFF0E4B019301230E4900934FF49A
:10A91000806200230C48FEF733FF4FF4407000F0D4
:10A9200065FAFEF7A5FFBFF34F8F0849084BCA68C9
:10A9300002F4E0621343CB60BFF34F8F00BFFDE72B
:10A94000846B002094F00200A1A8020000ED00E05A
:10A950000400FA05114B1A78EAB90178104810B4CE
:10A960000A464FF0804402F00102C1F34001C4F8EE
:10A970008015C4F878250268D20706D40122E021A8
:10A9800080F80013C0F880210260012205485DF8BC
:10A99000044B1A7070470448704700BF0C780020C1
:10A9A00000E100E00000AD0B0C00AD0B044B0268B1
:10A9B0004FF080414FF46070C1F808031A6070478F
:10A9C000906B00204FF080434FF46072C3F8042373
:10A9D000704700BF10B54FF0804386B0D3F80443F2
:10A9E000620705D5D3F8082103F58473002A4ED1F8
:10A9F000A30603D52A4B1A68002A3FD1600603D567
:10AA0000284B1A68002A2FD1210602D5264B1A6836
:10AA10000ABBE20502D5254B1A6892B9A3050ED5EB
:10AA2000234B1A685AB100221A601A68214B05920A
:10AA3000059A1B68022006B0BDE81040184706B012
:10AA400010BD00221A601B4A1B6804930120136882
:10AA5000049A9847E2E700201860164A1B6803939F
:10AA60001368039A9847D4E700221A60124A1B68B9
:10AA7000029301201368029A9847C5E700201860E6
:10AA80000D4A1B6801931368019A9847B6E70022A4
:10AA90001A600A4A1B6800931368009A9847A7E750
:10AAA00014010040180100401C010040200100403A
:10AAB00024010040906B00208C6B0020886B0020EC
:10AAC000764B1B6810B45C1C00F0B880744A082BED
:10AAD000126822D0714B1B68082B72D0591C15D0FC
:10AAE0006F4A1268082B00F0CB806E4AD2F888308B
:10AAF00043F47003C2F88830BFF34F8FBFF36F8FFA
:10AB0000694B6A4A5DF8044B1A607047684A694BA2
:10AB100012681B78C2F30312E4E7032A40F2A18013
:10AB20005F4A1268082BD5D1032AD3D84FF0805240
:10AB3000614BD2F80414C3F82015D2F80814C3F8F6
:10AB40002415D2F80C14C3F82815D2F81014C3F841
:10AB50002C15D2F81414C3F83015D2F81814C3F811
:10AB60003415D2F81C14C3F84015D2F82014C3F8D9
:10AB70004415D2F82414C3F84815D2F82814C3F8A1
:10AB80004C15D2F82C14C3F85015D2F83014C3F871
:10AB90005415D2F83414C3F86015D2F83814C3F839
:10ABA0006415D2F83C14C3F86815D2F84014C3F801
:10ABB0006C15D2F84424C3F87025384B1B68082B59
:10ABC0008CD1374B1A68032A8FD83C4B9B5C13B14E
:10ABD0003B4B3C4919603C4B9B5C6BB12F4B3B4959
:10ABE0001B682F4AFB20C1F81805082B12687FF458
:10ABF00075AF032A3FF679AF354B9B5CA3B1354B5C
:10AC0000354C19682068264AA3F5947320F00F008C
:10AC10001B68126801F00F010143082B21607FF4CB
:10AC20005DAF032A3FF661AF2C4B9B5C5BB31B4BC4
:10AC30002B4A1B684FF4007111604FE71D4A1C4BF3
:10AC400012781B68082A4FEA13137FF443AF13F0FE
:10AC50000C0F06D0164A174B12681B78C2F303126A
:10AC600060E70E4B1B684FF080420021581CC2F871
:10AC70000C11C2F81011C2F838157FF451AFE9E792
:10AC8000032A3FF632AF4FF08043D3F80024D207B7
:10AC900044BF6FF00102C3F8002426E73001001022
:10ACA0003401001000ED00E05C6000200090D00353
:10ACB000E80F00F0E00F00F000C000409CF0020040
:10ACC0008C560040488103009CF0020000F00040D8
:10ACD0009CF0020058020010E40E00409CF00200BC
:10ACE0004096024008B50020FBF73EFE044B4FF0B3
:10ACF00080525A6040BFBFF34F8FBFF36F8F08BDC4
:10AD000000ED00E0704700BF704700BF044B0360D8
:10AD100010B46423034C0C605DF8044B136070475F
:10AD2000946B0020E86B0020054B036010B44FF4D7
:10AD30008073044C0C605DF8044B1360704700BFD7
:10AD4000786D0020CC6D002070B5274E84B030683F
:10AD50004FF0FF3203A9FEF7C1F80028F7D0039C9B
:10AD6000237A6568052B0CD8DFE803F02F322A24FC
:10AD70001D03D4E90523D4E90301E4690094A8473D
:10AD8000039C25683DB1FFF733F90128284626D0FA
:10AD900001F05CFA039CFFF72BF9012820461BD039
:10ADA00001F054FAD3E7D4E90523D4E90301A84715
:10ADB000039CE6E7D4E90412E068A847039CE0E7B7
:10ADC000D4E90301A847039CDBE7A847039CD8E725
:10ADD000E068A847039CD4E701F042FCB7E701F024
:10ADE0003FFC039CD7E700BFD071002070B5402323
:10ADF0000B4D82B004460022184604212B60FDF75B
:10AE0000C7FD084D084B01930646022300930749EE
:10AE10002E60A2B200230648FEF7B2FC02B070BD5D
:10AE2000CC710020D0710020D4710020A0F002006D
:10AE300049AD0200BFF34F8F0549064BCA6802F4C3
:10AE4000E0621343CB60BFF34F8F00BFFDE700BF4D
:10AE500000ED00E00400FA051249134AD1F840154C
:10AE60001248134B30B411604FF080410122C1F8F9
:10AE70001825104C8A604FF0A0454FF40031C0F8FF
:10AE800080104FF480304FF0FF31C3F84803C3F80F
:10AE900008035A609A60C5F80815C4F8081530BC54
:10AEA000704700BF00A00040D871002000E100E022
:10AEB000001001400003005008B54FF080434E22BF
:10AEC000C3F81C25FFF7B6FFF0B482B000232F288B
:10AED000ADF8063016D85B4B53F82030023B1D2BE3
:10AEE00010D8DFE803F0AAAC9A9C0F0F0F0F0F0FDA
:10AEF0000F0F0F0F0F0F0F0F0F0F0F0F0F0F0F0F62
:10AF00009EA0A213002002B0F0BC704708274E4B51
:10AF10001C68082C40F38B800A2C40F38B800D2C8E
:10AF2000B5BF0C250E25022303234848484AC0F824
:10AF3000F03501260023C0F800654649C0F81435F5
:10AF4000C0F81035C2F81435C2F81035C2F82435EF
:10AF5000C2F82035C2F83435C2F83035C2F844356D
:10AF6000C2F84035C2F85435C2F85035C2F86435DD
:10AF7000C2F86035C2F87435C2F87035364A0B68CD
:10AF8000126836491B021203097802F4805203F456
:10AF9000E063134343EA01630DF10602C0F818357C
:10AFA0000146C0F81475C0F81075C0F82C26C0F81A
:10AFB00030660660D1F80031002BFBD00020012361
:10AFC000224AC1F800014B60D2F80431002BFBD0BB
:10AFD000002001231D49C2F804019360D1F8143107
:10AFE000002BFBD00023C1F81431BDF80620120459
:10AFF00048BFADF80630154B0022C3F80025BDF858
:10B000000600AC4200B23FF47EAF35BF2C1B641B80
:10B01000E040A04002B0F0BC7047032777E7042768
:10B0200075E7052773E7062771E707276FE7082508
:10B0300000237AE70A25012377E7012767E702273C
:10B0400065E700BFE0EE0200606000200070004095
:10B0500010700040E0710020E4710020DC710020DD
:10B060002F2815D81A4B53F820301F2B86BF194AAA
:10B0700003F01F034FF0A042052909D8DFE801F0D3
:10B080000F03151B210903F5E073032142F8231078
:10B09000704703F5E073104942F82310704703F539
:10B0A000E073002142F82310704703F5E0730C2190
:10B0B00042F82310704703F5E073042142F823108F
:10B0C000704703F5E073054942F82310704700BF4D
:10B0D000E0EE020000030050040002000C00030038
:10B0E0002F280FD80B4B53F820301F2B86BF0A4A4E
:10B0F00003F01F034FF0A04229B1012101FA03F32D
:10B10000C2F808357047012101FA03F3C2F80C3583
:10B11000704700BFE0EE0200000300502F280DD85A
:10B12000074B53F820201F2A86BF064902F01F0252
:10B130004FF0A04101239340C1F80835704700BF8C
:10B14000E0EE0200000300500378002B00F099802D
:10B150002DE9F041DFF830C10746002005463C46A6
:10B160001A0622D401221E46B6F5803F15440BD2A2
:10B17000202807D00CEB400301305E807B5D7C19FA
:10B18000002BEDD1BDE8F0811E28FBDCA6F5803355
:10B190000CEB40019A0AC3F30903A2F52052A3F570
:10B1A00010534A808B800230E8E703F0E002C02AA7
:10B1B0004CD003F0F002E02A57D003F0F802F02A56
:10B1C00057D003F0FC02F82A57D003F0FE02FC2A05
:10B1D00043D103F001030622617801F0C00EBEF1F5
:10B1E000800F3AD194F802E00EF0C00801F03F0160
:10B1F000B8F1800F41EA83132FD10EF03F0E032ADE
:10B200004EEA8313AFD0E17801F0C00EBEF1800F9B
:10B2100023D101F03F01042A41EA8313A3D021790D
:10B2200001F0C00EBEF1800F17D101F03F01052AD9
:10B2300041EA831397D0627902F0C00180290CD1D2
:10B2400002F03F0242EA831306228CE7627802F0A2
:10B25000C001802903F01F0301D0FF2284E702F020
:10B260003F0242EA831302227DE703F00F03032229
:10B27000B2E703F007030422AEE703F0030305225D
:10B28000AAE71846704700BF147300202DE9F0416B
:10B290001A4DDFF87480AC460446BCE80F0088B055
:10B2A00003AF0FC703AE0FCE05F1140E25460FC531
:10B2B0009EE80700DCF800303B806B4636682E8045
:10B2C00003C36B4603CB0E4D21620E49E06104F1CE
:10B2D0001C034FF4807C012740F20946204684F885
:10B2E0002420C4E90538C4E94951A4F81CC184F8F4
:10B2F0001E71A4F8206108B0BDE8F081CCF0020016
:10B30000ACF00200BCF0020000010900F8B50546EF
:10B310000A686E8B6C692B8B176834449B1B08463C
:10B320009BB295F81C112246B847C8B12218944226
:10B3300007D32AE0052B15D023781C4483B1A24201
:10B3400023D96378042BF5D1E378002BF4D195F859
:10B350001C31013385F81C3123781C44002BEED1BD
:10B360000020F8BD94F90230002B08DB95F81E315F
:10B37000591C85F81E11A1780B43A370DCE795F8E2
:10B380001D31591C85F81D11F5E76A8B6B69104456
:10B3900080B26883588095F81C211A710120F8BD8D
:10B3A00001814281704700BF01207047004870470B
:10B3B000E8710020014B5869704700BFE871002018
:10B3C00008B5032828D8DFE800F00F172302134937
:10B3D0001348FDF761FA431C5B0043F44073114AC4
:10B3E0009BB21048138008BD0D4B0E4AB3F82031B4
:10B3F00053804FF44173F4E7094BD3F82401FFF76E
:10B40000A3FEC3B201335B00064A43F44073E8E78E
:10B41000034BD3F82801F2E7002008BD1673002083
:10B42000E8710020147300200148FFF72FBF00BF10
:10B43000E871002002488C22002101F041B900BFD0
:10B440005873002002488C22002101F039B900BF56
:10B45000587300202DE9F0414B79032B82B009D1BC
:10B46000DFF8B08098F801504DB1284B1B68DB071E
:10B4700000D500BE0025284602B0BDE8F081164682
:10B480000A780C461144C8F8881091F801C0BCF144
:10B49000210F08D01D4B1B68DA07EBD500BE2846EC
:10B4A00002B0BDE8F081A55C2279294408F10105CC
:10B4B000019508F1020500950746FCF7BDF9054620
:10B4C0000028E7D0A379012B04BFE37988F8033083
:10B4D000D8F888300022B3F8073088F80420A27822
:10B4E000A8F80630237988F80020C3EBC303123391
:10B4F000338098F802100029BDD0054A3846402311
:10B50000FCF7F0F90028B6D1AFE700BFF0ED00E09E
:10B51000A073002058730020F0B50B7803F01F05CE
:10B52000012D83B00ED14D4F8A8897F800C0D2B25A
:10B5300094450C4628D113F06003064605D14B789C
:10B54000062B28D0002003B0F0BD202BFAD14B7879
:10B55000013B0A2BF6D801A252F823F02FB60200C5
:10B5600023B602000BB6020045B5020045B5020045
:10B5700045B5020045B5020045B50200FBB5020025
:10B58000E5B50200C7B50200354B1B68DA07D9D50F
:10B5900000BE0020D7E74B881B0A212B0BD0222BA3
:10B5A000D0D1AFF30080FB88024621463046FCF73D
:10B5B000FFF92846C7E7D7F88820002AC2D01378B9
:10B5C000FCF7F6F9BFE74888264B013818BF012081
:10B5D00038710BB1AFF3008021463046FCF7CEF94D
:10B5E0000120B0E74888204B000A7871002BF3D087
:10B5F000AFF300800028EFD1A4E7CB88402BA1D87F
:10B600001A4AFCF7D5F901209DE73B790DF10702B5
:10B61000C3F1010401238DF80740FCF7C9F90120AB
:10B6200091E7134A0123FCF7C3F901208BE748880F
:10B63000CB88104A010AC0B2AFF30080034628B994
:10B64000074A1268D3077FF57DAFA1E7094A214673
:10B650003046FCF7ADF9012075E700BF58730020B4
:10B66000F0ED00E00000000000000000A0730020EA
:10B670005D7300206073002008B5104A8B88107835
:10B68000DBB2984212D10B7803F06003202B01D07B
:10B69000012008BD4B78092BFAD14888CB88483265
:10B6A000010AC0B2AFF30080012008BD044B186846
:10B6B00010F00100EDD000BE002008BD587300203E
:10B6C000F0ED00E038B50E4DAA788A4210D1002185
:10B6D00004469BB2084605F14802AFF30080A97802
:10B6E0002046402305F14802FCF7FCF810B138BDB4
:10B6F000002038BD034B1B68DB07F9D500BE38BD01
:10B7000058730020F0ED00E030B5144C83B00125F3
:10B710004FF416722046002100F0D2FF04F12C01F4
:10B720002B46201D00958022FBF716FB2B4680221E
:10B7300004F1AC01009504F11800FBF70DFB04F5D2
:10B7400096712846FDF716FB04F5BE7103462846A0
:10B750006361FDF70FFBA06203B030BD1C780020D1
:10B7600010B5064C2046002340F8043BFBF706FCCE
:10B7700004F11800BDE81040FBF700BC1C78002065
:10B780004B79012B01D0002070478B79012BFAD126
:10B79000CB79002BF7D12DE9F0430B78CC1883B08F
:10B7A0006578242D064699B206D123781C440B44B3
:10B7B0006578242D99B2F8D0042D42D16379012BFC
:10B7C0003FD1A379032B3CD1E079002839D1284F10
:10B7D0007D78BB781D4348D1A3783B7094F80090E6
:10B7E00094F804C001EB09031FFA83F8BCF1000FC1
:10B7F0002BD0A14408E099F80000654508EB000350
:10B800001FFA83F8814420D299F80130052BF2D138
:10B81000494630460192FCF713FA019AF8B199F8BB
:10B82000023094F804C0D90914BF7B70BB7099F83A
:10B830000000013508EB0003EDB21FFA83F88144E4
:10B84000D9E7002003B0BDE8F083A2F80080B97802
:10B85000084A30464023FCF745F80028F2D1064B51
:10B860001B68DB07EDD500BEECE70070FFDE00BF14
:10B870001C780020F4790020F0ED00E001207047F2
:10B880000020704738B50E4CA2788A420FD19AB288
:10B89000054604F5EC71201DFBF71EFBA178284638
:10B8A000402304F5EC72FCF71DF810B138BD002000
:10B8B00038BD044B1B68DB07F9D500BE38BD00BF9F
:10B8C0001C780020F0ED00E070B5294CE28A52BAF5
:10B8D00092B282B022B1A568B5FBF2F293B233B94D
:10B8E000244B1B68DB0700D500BE02B070BD0646C6
:10B8F000A06BD4F81110204B2D1AB5F5007F28BF8E
:10B900004FF4007592B209BA0095B0FBF2F502FB54
:10B9100015022944607BAFF30080031E13DB08D1BE
:10B9200094F82E10009330461A46FBF75FFF02B0E2
:10B9300070BD94F82E10104A9BB23046FBF7D2FF30
:10B940000028D2D1CCE7A26BA36894F82E109B1AE2
:10B95000012542F20502A3623046002384F82C50F0
:10B96000A28784F83E3002B0BDE87040FBF7DEBF2E
:10B97000E4750020F0ED00E0E4730020024840226E
:10B98000002100F09DBE00BFE47500200248402267
:10B99000002100F095BE00BFE47500204B79082B14
:10B9A00001D000207047F0B58B79062B83B00C4690
:10B9B00002D0002003B0F0BDCB79502BF9D1124F4B
:10B9C0000978164607F12E0C07F12F020223CDE964
:10B9D000002C21441A460546FBF72EFF28B90B4BD5
:10B9E0001B68DB07E5D500BEE4E7A37887F82D30B8
:10B9F0001723338097F82F1028463A461F23FBF76A
:10BA000071FF0028D6D1EAE7E4750020F0ED00E0F0
:10BA10000B7803F06003202B0AD170B54B78FE2B16
:10BA200082B00C460BD0FF2B04D0002002B070BDBA
:10BA300000207047FBF7A2FF012002B070BD0B4A47
:10BA4000012306468DF8073022B1AFF3008003468C
:10BA50000028EAD05D1E2146304601230DF1070281
:10BA60008DF80750FBF7A4FF0120DFE7000000007E
:10BA700001207047F0B50B788DB01546252B1FD8E7
:10BA8000DFE803F0131E1E3C1E1E1E1E1E1E1E1E81
:10BA90001E1E1E1E1E1E691E1E1E1E1E1E1E8EA782
:10BAA0001E1E1E1E1E1E1EB81E23AFF30080002881
:10BAB00040F09C806B4B93F83C20002A00F0BE8045
:10BAC0004FF0FF3318460DB0F0BD0DF1060202A98C
:10BAD000AFF30080029B23B1BDF80620002A40F09E
